{
  "address": "0x9fE46736679d2D9a65F0992F2272dE9f3c7fa6e0",
  "abi": [
    {
      "inputs": [],
      "stateMutability": "payable",
      "type": "constructor"
    },
    {
      "anonymous": false,
      "inputs": [
        {
          "indexed": false,
          "internalType": "address",
          "name": "sender",
          "type": "address"
        },
        {
          "indexed": false,
          "internalType": "string",
          "name": "purpose",
          "type": "string"
        }
      ],
      "name": "SetPurpose",
      "type": "event"
    },
    {
      "stateMutability": "payable",
      "type": "fallback"
    },
    {
      "inputs": [],
      "name": "purpose",
      "outputs": [
        {
          "internalType": "string",
          "name": "",
          "type": "string"
        }
      ],
      "stateMutability": "view",
      "type": "function"
    },
    {
      "inputs": [
        {
          "internalType": "string",
          "name": "newPurpose",
          "type": "string"
        }
      ],
      "name": "setPurpose",
      "outputs": [],
      "stateMutability": "nonpayable",
      "type": "function"
    },
    {
      "stateMutability": "payable",
      "type": "receive"
    }
  ],
  "transactionHash": "0x40fc44edcbf35c392c862afe813d691fb32705247cbcd94c6954b894472ca151",
  "args": [],
  "solcInputHash": "91a24e31cc0724db4b4b9d19017f1eee",
  "bytecode": "0x60c0604052601c60808190527f4275696c64696e6720556e73746f707061626c6520417070732121210000000060a090815261003e9160009190610044565b50610118565b828054610050906100dd565b90600052602060002090601f01602090048101928261007257600085556100b8565b82601f1061008b57805160ff19168380011785556100b8565b828001600101855582156100b8579182015b828111156100b857825182559160200191906001019061009d565b506100c49291506100c8565b5090565b5b808211156100c457600081556001016100c9565b600181811c908216806100f157607f821691505b6020821081141561011257634e487b7160e01b600052602260045260246000fd5b50919050565b610431806101276000396000f3fe60806040526004361061002a5760003560e01c806370740aab14610033578063eb68757f1461005e57005b3661003157005b005b34801561003f57600080fd5b5061004861007e565b6040516100559190610357565b60405180910390f35b34801561006a57600080fd5b506100316100793660046101f6565b61010c565b6000805461008b906103aa565b80601f01602080910402602001604051908101604052809291908181526020018280546100b7906103aa565b80156101045780601f106100d957610100808354040283529160200191610104565b820191906000526020600020905b8154815290600101906020018083116100e757829003601f168201915b505050505081565b805161011f90600090602084019061015d565b507f6ea5d6383a120235c7728a9a6751672a8ac068e4ed34dcca2ee444182c1812de3360006040516101529291906102a0565b60405180910390a150565b828054610169906103aa565b90600052602060002090601f01602090048101928261018b57600085556101d1565b82601f106101a457805160ff19168380011785556101d1565b828001600101855582156101d1579182015b828111156101d15782518255916020019190600101906101b6565b506101dd9291506101e1565b5090565b5b808211156101dd57600081556001016101e2565b600060208284031215610207578081fd5b813567ffffffffffffffff8082111561021e578283fd5b818401915084601f830112610231578283fd5b813581811115610243576102436103e5565b604051601f8201601f19908116603f0116810190838211818310171561026b5761026b6103e5565b81604052828152876020848701011115610283578586fd5b826020860160208301379182016020019490945295945050505050565b60018060a01b03831681526000602060408184015281845483600182811c9150808316806102cf57607f831692505b8583108114156102ed57634e487b7160e01b87526022600452602487fd5b604088018390526060880181801561030c576001811461031d57610347565b60ff19861682528782019650610347565b60008b815260209020895b8681101561034157815484820152908501908901610328565b83019750505b50949a9950505050505050505050565b6000602080835283518082850152825b8181101561038357858101830151858201604001528201610367565b818111156103945783604083870101525b50601f01601f1916929092016040019392505050565b600181811c908216806103be57607f821691505b602082108114156103df57634e487b7160e01b600052602260045260246000fd5b50919050565b634e487b7160e01b600052604160045260246000fdfea26469706673582212207c17c745a158b4ae84dd6cf09a96d1ad9f5d5cf61f0e31858ca6f8584dde217864736f6c63430008040033",
  "devdoc": {
    "kind": "dev",
    "methods": {},
    "version": 1
  },
  "userdoc": {
    "kind": "user",
    "methods": {},
    "version": 1
  },
  "storageLayout": {
    "storage": [
      {
        "astId": 10,
        "contract": "contracts/YourContract.sol:YourContract",
        "label": "purpose",
        "offset": 0,
        "slot": "0",
        "type": "t_string_storage"
      }
    ],
    "types": {
      "t_string_storage": {
        "encoding": "bytes",
        "label": "string",
        "numberOfBytes": "32"
      }
    }
  }
}