{
  "_format": "hh-sol-artifact-1",
  "contractName": "CanvasNFT",
  "sourceName": "contracts/CanvasNFT.sol",
  "abi": [
    {
      "inputs": [],
      "stateMutability": "payable",
      "type": "constructor"
    },
    {
      "anonymous": false,
      "inputs": [
        {
          "indexed": true,
          "internalType": "address",
          "name": "owner",
          "type": "address"
        },
        {
          "indexed": true,
          "internalType": "address",
          "name": "approved",
          "type": "address"
        },
        {
          "indexed": true,
          "internalType": "uint256",
          "name": "tokenId",
          "type": "uint256"
        }
      ],
      "name": "Approval",
      "type": "event"
    },
    {
      "anonymous": false,
      "inputs": [
        {
          "indexed": true,
          "internalType": "address",
          "name": "owner",
          "type": "address"
        },
        {
          "indexed": true,
          "internalType": "address",
          "name": "operator",
          "type": "address"
        },
        {
          "indexed": false,
          "internalType": "bool",
          "name": "approved",
          "type": "bool"
        }
      ],
      "name": "ApprovalForAll",
      "type": "event"
    },
    {
      "anonymous": false,
      "inputs": [
        {
          "indexed": true,
          "internalType": "address",
          "name": "from",
          "type": "address"
        },
        {
          "indexed": true,
          "internalType": "address",
          "name": "to",
          "type": "address"
        },
        {
          "indexed": true,
          "internalType": "uint256",
          "name": "tokenId",
          "type": "uint256"
        }
      ],
      "name": "Transfer",
      "type": "event"
    },
    {
      "inputs": [
        {
          "internalType": "address",
          "name": "to",
          "type": "address"
        },
        {
          "internalType": "uint256",
          "name": "tokenId",
          "type": "uint256"
        }
      ],
      "name": "approve",
      "outputs": [],
      "stateMutability": "nonpayable",
      "type": "function"
    },
    {
      "inputs": [
        {
          "internalType": "address",
          "name": "owner",
          "type": "address"
        }
      ],
      "name": "balanceOf",
      "outputs": [
        {
          "internalType": "uint256",
          "name": "",
          "type": "uint256"
        }
      ],
      "stateMutability": "view",
      "type": "function"
    },
    {
      "inputs": [],
      "name": "canvasImage",
      "outputs": [
        {
          "internalType": "string",
          "name": "",
          "type": "string"
        }
      ],
      "stateMutability": "view",
      "type": "function"
    },
    {
      "inputs": [
        {
          "internalType": "uint256",
          "name": "tokenId",
          "type": "uint256"
        }
      ],
      "name": "getApproved",
      "outputs": [
        {
          "internalType": "address",
          "name": "",
          "type": "address"
        }
      ],
      "stateMutability": "view",
      "type": "function"
    },
    {
      "inputs": [],
      "name": "getCanvasImage",
      "outputs": [
        {
          "internalType": "string",
          "name": "",
          "type": "string"
        }
      ],
      "stateMutability": "view",
      "type": "function"
    },
    {
      "inputs": [],
      "name": "getNFTCount",
      "outputs": [
        {
          "internalType": "uint256",
          "name": "",
          "type": "uint256"
        }
      ],
      "stateMutability": "view",
      "type": "function"
    },
    {
      "inputs": [
        {
          "internalType": "address",
          "name": "owner",
          "type": "address"
        },
        {
          "internalType": "address",
          "name": "operator",
          "type": "address"
        }
      ],
      "name": "isApprovedForAll",
      "outputs": [
        {
          "internalType": "bool",
          "name": "",
          "type": "bool"
        }
      ],
      "stateMutability": "view",
      "type": "function"
    },
    {
      "inputs": [],
      "name": "isOwner",
      "outputs": [
        {
          "internalType": "bool",
          "name": "",
          "type": "bool"
        }
      ],
      "stateMutability": "view",
      "type": "function"
    },
    {
      "inputs": [
        {
          "internalType": "string",
          "name": "uri",
          "type": "string"
        }
      ],
      "name": "mintItem",
      "outputs": [],
      "stateMutability": "payable",
      "type": "function"
    },
    {
      "inputs": [],
      "name": "name",
      "outputs": [
        {
          "internalType": "string",
          "name": "",
          "type": "string"
        }
      ],
      "stateMutability": "view",
      "type": "function"
    },
    {
      "inputs": [],
      "name": "owner",
      "outputs": [
        {
          "internalType": "address payable",
          "name": "",
          "type": "address"
        }
      ],
      "stateMutability": "view",
      "type": "function"
    },
    {
      "inputs": [
        {
          "internalType": "uint256",
          "name": "tokenId",
          "type": "uint256"
        }
      ],
      "name": "ownerOf",
      "outputs": [
        {
          "internalType": "address",
          "name": "",
          "type": "address"
        }
      ],
      "stateMutability": "view",
      "type": "function"
    },
    {
      "inputs": [
        {
          "internalType": "uint256",
          "name": "x",
          "type": "uint256"
        },
        {
          "internalType": "uint256",
          "name": "y",
          "type": "uint256"
        },
        {
          "internalType": "string",
          "name": "color",
          "type": "string"
        },
        {
          "internalType": "address",
          "name": "nftAddr",
          "type": "address"
        },
        {
          "internalType": "uint256",
          "name": "tokenId",
          "type": "uint256"
        }
      ],
      "name": "placePixel",
      "outputs": [],
      "stateMutability": "nonpayable",
      "type": "function"
    },
    {
      "inputs": [],
      "name": "price",
      "outputs": [
        {
          "internalType": "uint256",
          "name": "",
          "type": "uint256"
        }
      ],
      "stateMutability": "view",
      "type": "function"
    },
    {
      "inputs": [
        {
          "internalType": "address",
          "name": "from",
          "type": "address"
        },
        {
          "internalType": "address",
          "name": "to",
          "type": "address"
        },
        {
          "internalType": "uint256",
          "name": "tokenId",
          "type": "uint256"
        }
      ],
      "name": "safeTransferFrom",
      "outputs": [],
      "stateMutability": "nonpayable",
      "type": "function"
    },
    {
      "inputs": [
        {
          "internalType": "address",
          "name": "from",
          "type": "address"
        },
        {
          "internalType": "address",
          "name": "to",
          "type": "address"
        },
        {
          "internalType": "uint256",
          "name": "tokenId",
          "type": "uint256"
        },
        {
          "internalType": "bytes",
          "name": "_data",
          "type": "bytes"
        }
      ],
      "name": "safeTransferFrom",
      "outputs": [],
      "stateMutability": "nonpayable",
      "type": "function"
    },
    {
      "inputs": [
        {
          "internalType": "address",
          "name": "operator",
          "type": "address"
        },
        {
          "internalType": "bool",
          "name": "approved",
          "type": "bool"
        }
      ],
      "name": "setApprovalForAll",
      "outputs": [],
      "stateMutability": "nonpayable",
      "type": "function"
    },
    {
      "inputs": [
        {
          "internalType": "bytes4",
          "name": "interfaceId",
          "type": "bytes4"
        }
      ],
      "name": "supportsInterface",
      "outputs": [
        {
          "internalType": "bool",
          "name": "",
          "type": "bool"
        }
      ],
      "stateMutability": "view",
      "type": "function"
    },
    {
      "inputs": [],
      "name": "symbol",
      "outputs": [
        {
          "internalType": "string",
          "name": "",
          "type": "string"
        }
      ],
      "stateMutability": "view",
      "type": "function"
    },
    {
      "inputs": [],
      "name": "tokenIds",
      "outputs": [
        {
          "internalType": "uint256",
          "name": "_value",
          "type": "uint256"
        }
      ],
      "stateMutability": "view",
      "type": "function"
    },
    {
      "inputs": [
        {
          "internalType": "uint256",
          "name": "tokenId",
          "type": "uint256"
        }
      ],
      "name": "tokenURI",
      "outputs": [
        {
          "internalType": "string",
          "name": "",
          "type": "string"
        }
      ],
      "stateMutability": "view",
      "type": "function"
    },
    {
      "inputs": [
        {
          "internalType": "address",
          "name": "from",
          "type": "address"
        },
        {
          "internalType": "address",
          "name": "to",
          "type": "address"
        },
        {
          "internalType": "uint256",
          "name": "tokenId",
          "type": "uint256"
        }
      ],
      "name": "transferFrom",
      "outputs": [],
      "stateMutability": "nonpayable",
      "type": "function"
    },
    {
      "inputs": [
        {
          "internalType": "uint256",
          "name": "x",
          "type": "uint256"
        },
        {
          "internalType": "uint256",
          "name": "y",
          "type": "uint256"
        }
      ],
      "name": "valid",
      "outputs": [
        {
          "internalType": "bool",
          "name": "",
          "type": "bool"
        }
      ],
      "stateMutability": "pure",
      "type": "function"
    },
    {
      "inputs": [],
      "name": "withdraw",
      "outputs": [],
      "stateMutability": "nonpayable",
      "type": "function"
    }
  ],
  "bytecode": "0x66038d7ea4c68000600855610100604052604160808181529062002c4060a0398051620000359160099160209091019062000409565b50604080518082019091526006808252651e17b9bb339f60d11b60209092019182526200006591600a9162000409565b50604080518082018252600a81526910d85b9d985cc813919560b21b60208083019182528351808501909452600684526543414e56415360d01b908401528151919291620000b69160009162000409565b508051620000cc90600190602084019062000409565b5050600b80546001600160a01b031916331790555060005b60058110156200016a5760005b60058110156200015457604080518082018252600681526523232323232360d11b60208083019182526000868152600c82528481208682529091529290922090516200013e929062000409565b50806200014b81620004c5565b915050620000f1565b50806200016181620004c5565b915050620000e4565b506009600a60405160200162000182929190620005c2565b604051602081830303815290604052600d9080519060200190620001a892919062000409565b5062000251600d8054620001bc90620004e3565b80601f0160208091040260200160405190810160405280929190818152602001828054620001ea90620004e3565b80156200023b5780601f106200020f576101008083540402835291602001916200023b565b820191906000526020600020905b8154815290600101906020018083116200021d57829003601f168201915b50505050506200029060201b62000fe91760201c565b604051602001620002639190620005e3565b604051602081830303815290604052600d90805190602001906200028992919062000409565b50620006c3565b805160609080620002b1575050604080516020810190915260008152919050565b60006003620002c28360026200064d565b620002ce919062000668565b620002db9060046200068b565b90506000620002ec8260206200064d565b6001600160401b03811115620003065762000306620006ad565b6040519080825280601f01601f19166020018201604052801562000331576020820181803683370190505b509050600060405180606001604052806040815260200162002c81604091399050600181016020830160005b86811015620003c0576003818a01810151603f601282901c8116860151600c83901c8216870151600684901c831688015192909316870151600891821b60ff94851601821b92841692909201901b91160160e01b8352600490920191016200035d565b506003860660018114620003dd5760028114620003ef57620003fb565b613d3d60f01b600119830152620003fb565b603d60f81b6000198301525b505050918152949350505050565b8280546200041790620004e3565b90600052602060002090601f0160209004810192826200043b576000855562000486565b82601f106200045657805160ff191683800117855562000486565b8280016001018555821562000486579182015b828111156200048657825182559160200191906001019062000469565b506200049492915062000498565b5090565b5b8082111562000494576000815560010162000499565b634e487b7160e01b600052601160045260246000fd5b6000600019821415620004dc57620004dc620004af565b5060010190565b600181811c90821680620004f857607f821691505b602082108114156200051a57634e487b7160e01b600052602260045260246000fd5b50919050565b8054600090600181811c90808316806200053b57607f831692505b60208084108214156200055e57634e487b7160e01b600052602260045260246000fd5b8180156200057557600181146200058757620005b6565b60ff19861689528489019650620005b6565b60008881526020902060005b86811015620005ae5781548b82015290850190830162000593565b505084890196505b50505050505092915050565b6000620005db620005d4838662000520565b8462000520565b949350505050565b7f646174613a696d6167652f7376672b786d6c3b6261736536342c00000000000081526000825160005b818110156200062c576020818601810151601a8684010152016200060d565b818111156200063f576000601a83860101525b5091909101601a0192915050565b60008219821115620006635762000663620004af565b500190565b6000826200068657634e487b7160e01b600052601260045260246000fd5b500490565b6000816000190483118215151615620006a857620006a8620004af565b500290565b634e487b7160e01b600052604160045260246000fd5b61256d80620006d36000396000f3fe60806040526004361061014b5760003560e01c806370a08231116100b6578063a22cb4651161006f578063a22cb46514610390578063b88d4fde146103b0578063c7545849146103d0578063c87b56dd146103e3578063e571ef6f14610403578063e985e9c51461041857600080fd5b806370a08231146102ee578063714cff561461030e5780638da5cb5b146103255780638f32d59b1461034557806395d89b4114610365578063a035b1fe1461037a57600080fd5b806323b872dd1161010857806323b872dd146102365780633ccfd60b1461025657806342842e0e1461026b578063530795ea1461028b57806354279637146102ab5780636352211e146102ce57600080fd5b806301ffc9a71461015057806306fdde0314610185578063081812fc146101a7578063095ea7b3146101df57806316f70a61146102015780631a5d930114610221575b600080fd5b34801561015c57600080fd5b5061017061016b366004611cef565b610461565b60405190151581526020015b60405180910390f35b34801561019157600080fd5b5061019a6104b3565b60405161017c9190611d64565b3480156101b357600080fd5b506101c76101c2366004611d77565b610545565b6040516001600160a01b03909116815260200161017c565b3480156101eb57600080fd5b506101ff6101fa366004611da5565b6105d2565b005b34801561020d57600080fd5b5061017061021c366004611dd1565b6106e8565b34801561022d57600080fd5b5061019a610701565b34801561024257600080fd5b506101ff610251366004611df3565b61078f565b34801561026257600080fd5b506101ff6107c0565b34801561027757600080fd5b506101ff610286366004611df3565b610875565b34801561029757600080fd5b506101ff6102a6366004611e7d565b610890565b3480156102b757600080fd5b506102c0610c54565b60405190815260200161017c565b3480156102da57600080fd5b506101c76102e9366004611d77565b610c64565b3480156102fa57600080fd5b506102c0610309366004611ef0565b610cdb565b34801561031a57600080fd5b506007546102c09081565b34801561033157600080fd5b50600b546101c7906001600160a01b031681565b34801561035157600080fd5b50600b546001600160a01b03163314610170565b34801561037157600080fd5b5061019a610d62565b34801561038657600080fd5b506102c060085481565b34801561039c57600080fd5b506101ff6103ab366004611f0d565b610d71565b3480156103bc57600080fd5b506101ff6103cb366004611f61565b610d7c565b6101ff6103de366004612041565b610db4565b3480156103ef57600080fd5b5061019a6103fe366004611d77565b610e63565b34801561040f57600080fd5b5061019a610fda565b34801561042457600080fd5b50610170610433366004612083565b6001600160a01b03918216600090815260056020908152604080832093909416825291909152205460ff1690565b60006001600160e01b031982166380ac58cd60e01b148061049257506001600160e01b03198216635b5e139f60e01b145b806104ad57506301ffc9a760e01b6001600160e01b03198316145b92915050565b6060600080546104c2906120b1565b80601f01602080910402602001604051908101604052809291908181526020018280546104ee906120b1565b801561053b5780601f106105105761010080835404028352916020019161053b565b820191906000526020600020905b81548152906001019060200180831161051e57829003601f168201915b5050505050905090565b60006105508261114f565b6105b65760405162461bcd60e51b815260206004820152602c60248201527f4552433732313a20617070726f76656420717565727920666f72206e6f6e657860448201526b34b9ba32b73a103a37b5b2b760a11b60648201526084015b60405180910390fd5b506000908152600460205260409020546001600160a01b031690565b60006105dd82610c64565b9050806001600160a01b0316836001600160a01b0316141561064b5760405162461bcd60e51b815260206004820152602160248201527f4552433732313a20617070726f76616c20746f2063757272656e74206f776e656044820152603960f91b60648201526084016105ad565b336001600160a01b038216148061066757506106678133610433565b6106d95760405162461bcd60e51b815260206004820152603860248201527f4552433732313a20617070726f76652063616c6c6572206973206e6f74206f7760448201527f6e6572206e6f7220617070726f76656420666f7220616c6c000000000000000060648201526084016105ad565b6106e3838361116c565b505050565b60006005831080156106fa5750600582105b9392505050565b600d805461070e906120b1565b80601f016020809104026020016040519081016040528092919081815260200182805461073a906120b1565b80156107875780601f1061075c57610100808354040283529160200191610787565b820191906000526020600020905b81548152906001019060200180831161076a57829003601f168201915b505050505081565b61079933826111da565b6107b55760405162461bcd60e51b81526004016105ad906120ec565b6106e38383836112c0565b600b546001600160a01b031633146107d757600080fd5b6040514790600090339083908381818185875af1925050503d806000811461081b576040519150601f19603f3d011682016040523d82523d6000602084013e610820565b606091505b50509050806108715760405162461bcd60e51b815260206004820152601860248201527f4661696c656420746f207769746864726177204d61746963000000000000000060448201526064016105ad565b5050565b6106e383838360405180602001604052806000815250610d7c565b61089a86866106e8565b6108f55760405162461bcd60e51b815260206004820152602660248201527f706c656173652073656c65637420636f727265637420706978656c20636f6f7260448201526564696e61746560d01b60648201526084016105ad565b816001600160a01b0381163014156109405760405162461bcd60e51b815260206004820152600e60248201526d6e6963652074727920686168612160901b60448201526064016105ad565b6040516323b872dd60e01b8152336004820152306024820152604481018390526001600160a01b038216906323b872dd90606401600060405180830381600087803b15801561098e57600080fd5b505af11580156109a2573d6000803e3d6000fd5b50506040516331a9108f60e11b8152600481018590523092506001600160a01b0384169150636352211e90602401602060405180830381865afa1580156109ed573d6000803e3d6000fd5b505050506040513d601f19601f82011682018060405250810190610a11919061213d565b6001600160a01b031614610a5d5760405162461bcd60e51b8152602060048201526013602482015272139195081b9bdd081d1c985b9cd9995c9c9959606a1b60448201526064016105ad565b6000878152600c602090815260408083208984529091529020610a81908686611bcc565b50604080516020810190915260008082525b6005811015610b505760005b6005811015610b3d576000610abd610ab8846028612170565b61145c565b610acb610ab8846028612170565b6000858152600c602090815260408083208784528252918290209151610af49493929101612229565b60405160208183030381529060405290508381604051602001610b189291906122e1565b6040516020818303038152906040529350508080610b3590612310565b915050610a9f565b5080610b4881612310565b915050610a93565b50600981600a604051602001610b689392919061232b565b6040516020818303038152906040529050610b8281610fe9565b604051602001610b92919061235e565b604051602081830303815290604052600d9080519060200190610bb6929190611c50565b50610c4a600d8054610bc7906120b1565b80601f0160208091040260200160405190810160405280929190818152602001828054610bf3906120b1565b8015610c405780601f10610c1557610100808354040283529160200191610c40565b820191906000526020600020905b815481529060010190602001808311610c2357829003601f168201915b5050505050611585565b5050505050505050565b6000610c5f60075490565b905090565b6000818152600260205260408120546001600160a01b0316806104ad5760405162461bcd60e51b815260206004820152602960248201527f4552433732313a206f776e657220717565727920666f72206e6f6e657869737460448201526832b73a103a37b5b2b760b91b60648201526084016105ad565b60006001600160a01b038216610d465760405162461bcd60e51b815260206004820152602a60248201527f4552433732313a2062616c616e636520717565727920666f7220746865207a65604482015269726f206164647265737360b01b60648201526084016105ad565b506001600160a01b031660009081526003602052604090205490565b6060600180546104c2906120b1565b6108713383836115cb565b610d8633836111da565b610da25760405162461bcd60e51b81526004016105ad906120ec565b610dae8484848461169a565b50505050565b600854341015610dfe5760405162461bcd60e51b81526020600482015260156024820152741b9bdd08195b9bdd59da081d1bdad95b881c185a59605a1b60448201526064016105ad565b6000610e0960075490565b9050610e1533826116cd565b610e558184848080601f0160208091040260200160405190810160405280939291908181526020018383808284376000920191909152506116e792505050565b6106e3600780546001019055565b6060610e6e8261114f565b610ed45760405162461bcd60e51b815260206004820152603160248201527f45524337323155524953746f726167653a2055524920717565727920666f72206044820152703737b732bc34b9ba32b73a103a37b5b2b760791b60648201526084016105ad565b60008281526006602052604081208054610eed906120b1565b80601f0160208091040260200160405190810160405280929190818152602001828054610f19906120b1565b8015610f665780601f10610f3b57610100808354040283529160200191610f66565b820191906000526020600020905b815481529060010190602001808311610f4957829003601f168201915b505050505090506000610f8460408051602081019091526000815290565b9050805160001415610f97575092915050565b815115610fc9578082604051602001610fb19291906122e1565b60405160208183030381529060405292505050919050565b610fd284611772565b949350505050565b6060600d80546104c2906120b1565b805160609080611009575050604080516020810190915260008152919050565b600060036110188360026123a3565b61102291906123d1565b61102d906004612170565b9050600061103c8260206123a3565b67ffffffffffffffff81111561105457611054611f4b565b6040519080825280601f01601f19166020018201604052801561107e576020820181803683370190505b50905060006040518060600160405280604081526020016124f8604091399050600181016020830160005b8681101561110a576003818a01810151603f601282901c8116860151600c83901c8216870151600684901c831688015192909316870151600891821b60ff94851601821b92841692909201901b91160160e01b8352600490920191016110a9565b506003860660018114611124576002811461113557611141565b613d3d60f01b600119830152611141565b603d60f81b6000198301525b505050918152949350505050565b6000908152600260205260409020546001600160a01b0316151590565b600081815260046020526040902080546001600160a01b0319166001600160a01b03841690811790915581906111a182610c64565b6001600160a01b03167f8c5be1e5ebec7d5bd14f71427d1e84f3dd0314c0f7b2291e5b200ac8c7c3b92560405160405180910390a45050565b60006111e58261114f565b6112465760405162461bcd60e51b815260206004820152602c60248201527f4552433732313a206f70657261746f7220717565727920666f72206e6f6e657860448201526b34b9ba32b73a103a37b5b2b760a11b60648201526084016105ad565b600061125183610c64565b9050806001600160a01b0316846001600160a01b0316148061128c5750836001600160a01b031661128184610545565b6001600160a01b0316145b80610fd257506001600160a01b0380821660009081526005602090815260408083209388168352929052205460ff16610fd2565b826001600160a01b03166112d382610c64565b6001600160a01b0316146113375760405162461bcd60e51b815260206004820152602560248201527f4552433732313a207472616e736665722066726f6d20696e636f72726563742060448201526437bbb732b960d91b60648201526084016105ad565b6001600160a01b0382166113995760405162461bcd60e51b8152602060048201526024808201527f4552433732313a207472616e7366657220746f20746865207a65726f206164646044820152637265737360e01b60648201526084016105ad565b6113a460008261116c565b6001600160a01b03831660009081526003602052604081208054600192906113cd9084906123e5565b90915550506001600160a01b03821660009081526003602052604081208054600192906113fb9084906123a3565b909155505060008181526002602052604080822080546001600160a01b0319166001600160a01b0386811691821790925591518493918716917fddf252ad1be2c89b69c2b068fc378daa952ba7f163c4a11628f55a4df523b3ef91a4505050565b6060816114805750506040805180820190915260018152600360fc1b602082015290565b8160005b81156114aa578061149481612310565b91506114a39050600a836123d1565b9150611484565b60008167ffffffffffffffff8111156114c5576114c5611f4b565b6040519080825280601f01601f1916602001820160405280156114ef576020820181803683370190505b509050815b851561157c576115056001826123e5565b90506000611514600a886123d1565b61151f90600a612170565b61152990886123e5565b6115349060306123fc565b905060008160f81b90508084848151811061155157611551612421565b60200101906001600160f81b031916908160001a905350611573600a896123d1565b975050506114f4565b50949350505050565b6115c8816040516024016115999190611d64565b60408051601f198184030181529190526020810180516001600160e01b031663104c13eb60e21b179052611849565b50565b816001600160a01b0316836001600160a01b0316141561162d5760405162461bcd60e51b815260206004820152601960248201527f4552433732313a20617070726f766520746f2063616c6c65720000000000000060448201526064016105ad565b6001600160a01b03838116600081815260056020908152604080832094871680845294825291829020805460ff191686151590811790915591519182527f17307eab39ab6107e8899845ad3d59bd9653f200f220920489ca2b5937696c31910160405180910390a3505050565b6116a58484846112c0565b6116b18484848461186a565b610dae5760405162461bcd60e51b81526004016105ad90612437565b610871828260405180602001604052806000815250611968565b6116f08261114f565b6117535760405162461bcd60e51b815260206004820152602e60248201527f45524337323155524953746f726167653a2055524920736574206f66206e6f6e60448201526d32bc34b9ba32b73a103a37b5b2b760911b60648201526084016105ad565b600082815260066020908152604090912082516106e392840190611c50565b606061177d8261114f565b6117e15760405162461bcd60e51b815260206004820152602f60248201527f4552433732314d657461646174613a2055524920717565727920666f72206e6f60448201526e3732bc34b9ba32b73a103a37b5b2b760891b60648201526084016105ad565b60006117f860408051602081019091526000815290565b9050600081511161181857604051806020016040528060008152506106fa565b806118228461199b565b6040516020016118339291906122e1565b6040516020818303038152906040529392505050565b80516a636f6e736f6c652e6c6f67602083016000808483855afa5050505050565b60006001600160a01b0384163b1561195d57604051630a85bd0160e11b81526001600160a01b0385169063150b7a02906118ae903390899088908890600401612489565b6020604051808303816000875af19250505080156118e9575060408051601f3d908101601f191682019092526118e6918101906124c6565b60015b611943573d808015611917576040519150601f19603f3d011682016040523d82523d6000602084013e61191c565b606091505b50805161193b5760405162461bcd60e51b81526004016105ad90612437565b805181602001fd5b6001600160e01b031916630a85bd0160e11b149050610fd2565b506001949350505050565b6119728383611a99565b61197f600084848461186a565b6106e35760405162461bcd60e51b81526004016105ad90612437565b6060816119bf5750506040805180820190915260018152600360fc1b602082015290565b8160005b81156119e957806119d381612310565b91506119e29050600a836123d1565b91506119c3565b60008167ffffffffffffffff811115611a0457611a04611f4b565b6040519080825280601f01601f191660200182016040528015611a2e576020820181803683370190505b5090505b8415610fd257611a436001836123e5565b9150611a50600a866124e3565b611a5b9060306123a3565b60f81b818381518110611a7057611a70612421565b60200101906001600160f81b031916908160001a905350611a92600a866123d1565b9450611a32565b6001600160a01b038216611aef5760405162461bcd60e51b815260206004820181905260248201527f4552433732313a206d696e7420746f20746865207a65726f206164647265737360448201526064016105ad565b611af88161114f565b15611b455760405162461bcd60e51b815260206004820152601c60248201527f4552433732313a20746f6b656e20616c7265616479206d696e7465640000000060448201526064016105ad565b6001600160a01b0382166000908152600360205260408120805460019290611b6e9084906123a3565b909155505060008181526002602052604080822080546001600160a01b0319166001600160a01b03861690811790915590518392907fddf252ad1be2c89b69c2b068fc378daa952ba7f163c4a11628f55a4df523b3ef908290a45050565b828054611bd8906120b1565b90600052602060002090601f016020900481019282611bfa5760008555611c40565b82601f10611c135782800160ff19823516178555611c40565b82800160010185558215611c40579182015b82811115611c40578235825591602001919060010190611c25565b50611c4c929150611cc4565b5090565b828054611c5c906120b1565b90600052602060002090601f016020900481019282611c7e5760008555611c40565b82601f10611c9757805160ff1916838001178555611c40565b82800160010185558215611c40579182015b82811115611c40578251825591602001919060010190611ca9565b5b80821115611c4c5760008155600101611cc5565b6001600160e01b0319811681146115c857600080fd5b600060208284031215611d0157600080fd5b81356106fa81611cd9565b60005b83811015611d27578181015183820152602001611d0f565b83811115610dae5750506000910152565b60008151808452611d50816020860160208601611d0c565b601f01601f19169290920160200192915050565b6020815260006106fa6020830184611d38565b600060208284031215611d8957600080fd5b5035919050565b6001600160a01b03811681146115c857600080fd5b60008060408385031215611db857600080fd5b8235611dc381611d90565b946020939093013593505050565b60008060408385031215611de457600080fd5b50508035926020909101359150565b600080600060608486031215611e0857600080fd5b8335611e1381611d90565b92506020840135611e2381611d90565b929592945050506040919091013590565b60008083601f840112611e4657600080fd5b50813567ffffffffffffffff811115611e5e57600080fd5b602083019150836020828501011115611e7657600080fd5b9250929050565b60008060008060008060a08789031215611e9657600080fd5b8635955060208701359450604087013567ffffffffffffffff811115611ebb57600080fd5b611ec789828a01611e34565b9095509350506060870135611edb81611d90565b80925050608087013590509295509295509295565b600060208284031215611f0257600080fd5b81356106fa81611d90565b60008060408385031215611f2057600080fd5b8235611f2b81611d90565b915060208301358015158114611f4057600080fd5b809150509250929050565b634e487b7160e01b600052604160045260246000fd5b60008060008060808587031215611f7757600080fd5b8435611f8281611d90565b93506020850135611f9281611d90565b925060408501359150606085013567ffffffffffffffff80821115611fb657600080fd5b818701915087601f830112611fca57600080fd5b813581811115611fdc57611fdc611f4b565b604051601f8201601f19908116603f0116810190838211818310171561200457612004611f4b565b816040528281528a602084870101111561201d57600080fd5b82602086016020830137600060208483010152809550505050505092959194509250565b6000806020838503121561205457600080fd5b823567ffffffffffffffff81111561206b57600080fd5b61207785828601611e34565b90969095509350505050565b6000806040838503121561209657600080fd5b82356120a181611d90565b91506020830135611f4081611d90565b600181811c908216806120c557607f821691505b602082108114156120e657634e487b7160e01b600052602260045260246000fd5b50919050565b60208082526031908201527f4552433732313a207472616e736665722063616c6c6572206973206e6f74206f6040820152701ddb995c881b9bdc88185c1c1c9bdd9959607a1b606082015260800190565b60006020828403121561214f57600080fd5b81516106fa81611d90565b634e487b7160e01b600052601160045260246000fd5b600081600019048311821515161561218a5761218a61215a565b500290565b8054600090600181811c90808316806121a957607f831692505b60208084108214156121cb57634e487b7160e01b600052602260045260246000fd5b8180156121df57600181146121f05761221d565b60ff1986168952848901965061221d565b60008881526020902060005b868110156122155781548b8201529085019083016121fc565b505084890196505b50505050505092915050565b7f3c726563742077696474683d22343022206865696768743d2234302200000000815263103c1e9160e11b601c8201526000845161226e816020850160208901611d0c565b8083019050601160f91b80602083015263103c9e9160e11b6021830152855161229e816025850160208a01611d0c565b60259201918201526d207374796c653d2266696c6c3a2360901b60268201526122ca603482018561218f565b631110179f60e11b81526004019695505050505050565b600083516122f3818460208801611d0c565b835190830190612307818360208801611d0c565b01949350505050565b60006000198214156123245761232461215a565b5060010190565b6000612337828661218f565b8451612347818360208901611d0c565b6123538183018661218f565b979650505050505050565b7f646174613a696d6167652f7376672b786d6c3b6261736536342c00000000000081526000825161239681601a850160208701611d0c565b91909101601a0192915050565b600082198211156123b6576123b661215a565b500190565b634e487b7160e01b600052601260045260246000fd5b6000826123e0576123e06123bb565b500490565b6000828210156123f7576123f761215a565b500390565b600060ff821660ff84168060ff038211156124195761241961215a565b019392505050565b634e487b7160e01b600052603260045260246000fd5b60208082526032908201527f4552433732313a207472616e7366657220746f206e6f6e20455243373231526560408201527131b2b4bb32b91034b6b83632b6b2b73a32b960711b606082015260800190565b6001600160a01b03858116825284166020820152604081018390526080606082018190526000906124bc90830184611d38565b9695505050505050565b6000602082840312156124d857600080fd5b81516106fa81611cd9565b6000826124f2576124f26123bb565b50069056fe4142434445464748494a4b4c4d4e4f505152535455565758595a6162636465666768696a6b6c6d6e6f707172737475767778797a303132333435363738392b2fa2646970667358221220497a33ecef180c760f6b9db0bc8474afc60cc21de706ace2ba80c53d0b64bc9364736f6c634300080a00333c73766720786d6c6e733d22687474703a2f2f7777772e77332e6f72672f323030302f737667222077696474683d2232303022206865696768743d22323030223e4142434445464748494a4b4c4d4e4f505152535455565758595a6162636465666768696a6b6c6d6e6f707172737475767778797a303132333435363738392b2f",
  "linkReferences": {},
  "deployedLinkReferences": {}
}