{
  "contracts/YourContract2.sol": {
    "YourContract2": {
      "abi": [
        {
          "inputs": [],
          "stateMutability": "payable",
          "type": "constructor"
        },
        {
          "anonymous": false,
          "inputs": [
            {
              "indexed": false,
              "internalType": "address",
              "name": "sender",
              "type": "address"
            },
            {
              "indexed": false,
              "internalType": "string",
              "name": "purpose",
              "type": "string"
            }
          ],
          "name": "SetPurpose",
          "type": "event"
        },
        {
          "stateMutability": "payable",
          "type": "fallback"
        },
        {
          "inputs": [],
          "name": "purpose",
          "outputs": [
            {
              "internalType": "string",
              "name": "",
              "type": "string"
            }
          ],
          "stateMutability": "view",
          "type": "function"
        },
        {
          "inputs": [
            {
              "internalType": "string",
              "name": "newPurpose",
              "type": "string"
            }
          ],
          "name": "setPurpose",
          "outputs": [],
          "stateMutability": "nonpayable",
          "type": "function"
        },
        {
          "stateMutability": "payable",
          "type": "receive"
        }
      ],
      "devdoc": {
        "kind": "dev",
        "methods": {},
        "version": 1
      },
      "evm": {
        "bytecode": {
          "linkReferences": {},
          "object": "60c0604052601c60808190527f4275696c64696e6720556e73746f707061626c6520417070732121210000000060a090815261003e9160009190610044565b50610118565b828054610050906100dd565b90600052602060002090601f01602090048101928261007257600085556100b8565b82601f1061008b57805160ff19168380011785556100b8565b828001600101855582156100b8579182015b828111156100b857825182559160200191906001019061009d565b506100c49291506100c8565b5090565b5b808211156100c457600081556001016100c9565b600181811c908216806100f157607f821691505b6020821081141561011257634e487b7160e01b600052602260045260246000fd5b50919050565b610431806101276000396000f3fe60806040526004361061002a5760003560e01c806370740aab14610033578063eb68757f1461005e57005b3661003157005b005b34801561003f57600080fd5b5061004861007e565b6040516100559190610357565b60405180910390f35b34801561006a57600080fd5b506100316100793660046101f6565b61010c565b6000805461008b906103aa565b80601f01602080910402602001604051908101604052809291908181526020018280546100b7906103aa565b80156101045780601f106100d957610100808354040283529160200191610104565b820191906000526020600020905b8154815290600101906020018083116100e757829003601f168201915b505050505081565b805161011f90600090602084019061015d565b507f6ea5d6383a120235c7728a9a6751672a8ac068e4ed34dcca2ee444182c1812de3360006040516101529291906102a0565b60405180910390a150565b828054610169906103aa565b90600052602060002090601f01602090048101928261018b57600085556101d1565b82601f106101a457805160ff19168380011785556101d1565b828001600101855582156101d1579182015b828111156101d15782518255916020019190600101906101b6565b506101dd9291506101e1565b5090565b5b808211156101dd57600081556001016101e2565b600060208284031215610207578081fd5b813567ffffffffffffffff8082111561021e578283fd5b818401915084601f830112610231578283fd5b813581811115610243576102436103e5565b604051601f8201601f19908116603f0116810190838211818310171561026b5761026b6103e5565b81604052828152876020848701011115610283578586fd5b826020860160208301379182016020019490945295945050505050565b60018060a01b03831681526000602060408184015281845483600182811c9150808316806102cf57607f831692505b8583108114156102ed57634e487b7160e01b87526022600452602487fd5b604088018390526060880181801561030c576001811461031d57610347565b60ff19861682528782019650610347565b60008b815260209020895b8681101561034157815484820152908501908901610328565b83019750505b50949a9950505050505050505050565b6000602080835283518082850152825b8181101561038357858101830151858201604001528201610367565b818111156103945783604083870101525b50601f01601f1916929092016040019392505050565b600181811c908216806103be57607f821691505b602082108114156103df57634e487b7160e01b600052602260045260246000fd5b50919050565b634e487b7160e01b600052604160045260246000fdfea26469706673582212207b992f09970b1893b0d20f13c3bc70fabaff67fe44bba06b7d0d97754cb58ba464736f6c63430008040033",
          "opcodes": "PUSH1 0xC0 PUSH1 0x40 MSTORE PUSH1 0x1C PUSH1 0x80 DUP2 SWAP1 MSTORE PUSH32 0x4275696C64696E6720556E73746F707061626C65204170707321212100000000 PUSH1 0xA0 SWAP1 DUP2 MSTORE PUSH2 0x3E SWAP2 PUSH1 0x0 SWAP2 SWAP1 PUSH2 0x44 JUMP JUMPDEST POP PUSH2 0x118 JUMP JUMPDEST DUP3 DUP1 SLOAD PUSH2 0x50 SWAP1 PUSH2 0xDD JUMP JUMPDEST SWAP1 PUSH1 0x0 MSTORE PUSH1 0x20 PUSH1 0x0 KECCAK256 SWAP1 PUSH1 0x1F ADD PUSH1 0x20 SWAP1 DIV DUP2 ADD SWAP3 DUP3 PUSH2 0x72 JUMPI PUSH1 0x0 DUP6 SSTORE PUSH2 0xB8 JUMP JUMPDEST DUP3 PUSH1 0x1F LT PUSH2 0x8B JUMPI DUP1 MLOAD PUSH1 0xFF NOT AND DUP4 DUP1 ADD OR DUP6 SSTORE PUSH2 0xB8 JUMP JUMPDEST DUP3 DUP1 ADD PUSH1 0x1 ADD DUP6 SSTORE DUP3 ISZERO PUSH2 0xB8 JUMPI SWAP2 DUP3 ADD JUMPDEST DUP3 DUP2 GT ISZERO PUSH2 0xB8 JUMPI DUP3 MLOAD DUP3 SSTORE SWAP2 PUSH1 0x20 ADD SWAP2 SWAP1 PUSH1 0x1 ADD SWAP1 PUSH2 0x9D JUMP JUMPDEST POP PUSH2 0xC4 SWAP3 SWAP2 POP PUSH2 0xC8 JUMP JUMPDEST POP SWAP1 JUMP JUMPDEST JUMPDEST DUP1 DUP3 GT ISZERO PUSH2 0xC4 JUMPI PUSH1 0x0 DUP2 SSTORE PUSH1 0x1 ADD PUSH2 0xC9 JUMP JUMPDEST PUSH1 0x1 DUP2 DUP2 SHR SWAP1 DUP3 AND DUP1 PUSH2 0xF1 JUMPI PUSH1 0x7F DUP3 AND SWAP2 POP JUMPDEST PUSH1 0x20 DUP3 LT DUP2 EQ ISZERO PUSH2 0x112 JUMPI PUSH4 0x4E487B71 PUSH1 0xE0 SHL PUSH1 0x0 MSTORE PUSH1 0x22 PUSH1 0x4 MSTORE PUSH1 0x24 PUSH1 0x0 REVERT JUMPDEST POP SWAP2 SWAP1 POP JUMP JUMPDEST PUSH2 0x431 DUP1 PUSH2 0x127 PUSH1 0x0 CODECOPY PUSH1 0x0 RETURN INVALID PUSH1 0x80 PUSH1 0x40 MSTORE PUSH1 0x4 CALLDATASIZE LT PUSH2 0x2A JUMPI PUSH1 0x0 CALLDATALOAD PUSH1 0xE0 SHR DUP1 PUSH4 0x70740AAB EQ PUSH2 0x33 JUMPI DUP1 PUSH4 0xEB68757F EQ PUSH2 0x5E JUMPI STOP JUMPDEST CALLDATASIZE PUSH2 0x31 JUMPI STOP JUMPDEST STOP JUMPDEST CALLVALUE DUP1 ISZERO PUSH2 0x3F JUMPI PUSH1 0x0 DUP1 REVERT JUMPDEST POP PUSH2 0x48 PUSH2 0x7E JUMP JUMPDEST PUSH1 0x40 MLOAD PUSH2 0x55 SWAP2 SWAP1 PUSH2 0x357 JUMP JUMPDEST PUSH1 0x40 MLOAD DUP1 SWAP2 SUB SWAP1 RETURN JUMPDEST CALLVALUE DUP1 ISZERO PUSH2 0x6A JUMPI PUSH1 0x0 DUP1 REVERT JUMPDEST POP PUSH2 0x31 PUSH2 0x79 CALLDATASIZE PUSH1 0x4 PUSH2 0x1F6 JUMP JUMPDEST PUSH2 0x10C JUMP JUMPDEST PUSH1 0x0 DUP1 SLOAD PUSH2 0x8B SWAP1 PUSH2 0x3AA JUMP JUMPDEST DUP1 PUSH1 0x1F ADD PUSH1 0x20 DUP1 SWAP2 DIV MUL PUSH1 0x20 ADD PUSH1 0x40 MLOAD SWAP1 DUP2 ADD PUSH1 0x40 MSTORE DUP1 SWAP3 SWAP2 SWAP1 DUP2 DUP2 MSTORE PUSH1 0x20 ADD DUP3 DUP1 SLOAD PUSH2 0xB7 SWAP1 PUSH2 0x3AA JUMP JUMPDEST DUP1 ISZERO PUSH2 0x104 JUMPI DUP1 PUSH1 0x1F LT PUSH2 0xD9 JUMPI PUSH2 0x100 DUP1 DUP4 SLOAD DIV MUL DUP4 MSTORE SWAP2 PUSH1 0x20 ADD SWAP2 PUSH2 0x104 JUMP JUMPDEST DUP3 ADD SWAP2 SWAP1 PUSH1 0x0 MSTORE PUSH1 0x20 PUSH1 0x0 KECCAK256 SWAP1 JUMPDEST DUP2 SLOAD DUP2 MSTORE SWAP1 PUSH1 0x1 ADD SWAP1 PUSH1 0x20 ADD DUP1 DUP4 GT PUSH2 0xE7 JUMPI DUP3 SWAP1 SUB PUSH1 0x1F AND DUP3 ADD SWAP2 JUMPDEST POP POP POP POP POP DUP2 JUMP JUMPDEST DUP1 MLOAD PUSH2 0x11F SWAP1 PUSH1 0x0 SWAP1 PUSH1 0x20 DUP5 ADD SWAP1 PUSH2 0x15D JUMP JUMPDEST POP PUSH32 0x6EA5D6383A120235C7728A9A6751672A8AC068E4ED34DCCA2EE444182C1812DE CALLER PUSH1 0x0 PUSH1 0x40 MLOAD PUSH2 0x152 SWAP3 SWAP2 SWAP1 PUSH2 0x2A0 JUMP JUMPDEST PUSH1 0x40 MLOAD DUP1 SWAP2 SUB SWAP1 LOG1 POP JUMP JUMPDEST DUP3 DUP1 SLOAD PUSH2 0x169 SWAP1 PUSH2 0x3AA JUMP JUMPDEST SWAP1 PUSH1 0x0 MSTORE PUSH1 0x20 PUSH1 0x0 KECCAK256 SWAP1 PUSH1 0x1F ADD PUSH1 0x20 SWAP1 DIV DUP2 ADD SWAP3 DUP3 PUSH2 0x18B JUMPI PUSH1 0x0 DUP6 SSTORE PUSH2 0x1D1 JUMP JUMPDEST DUP3 PUSH1 0x1F LT PUSH2 0x1A4 JUMPI DUP1 MLOAD PUSH1 0xFF NOT AND DUP4 DUP1 ADD OR DUP6 SSTORE PUSH2 0x1D1 JUMP JUMPDEST DUP3 DUP1 ADD PUSH1 0x1 ADD DUP6 SSTORE DUP3 ISZERO PUSH2 0x1D1 JUMPI SWAP2 DUP3 ADD JUMPDEST DUP3 DUP2 GT ISZERO PUSH2 0x1D1 JUMPI DUP3 MLOAD DUP3 SSTORE SWAP2 PUSH1 0x20 ADD SWAP2 SWAP1 PUSH1 0x1 ADD SWAP1 PUSH2 0x1B6 JUMP JUMPDEST POP PUSH2 0x1DD SWAP3 SWAP2 POP PUSH2 0x1E1 JUMP JUMPDEST POP SWAP1 JUMP JUMPDEST JUMPDEST DUP1 DUP3 GT ISZERO PUSH2 0x1DD JUMPI PUSH1 0x0 DUP2 SSTORE PUSH1 0x1 ADD PUSH2 0x1E2 JUMP JUMPDEST PUSH1 0x0 PUSH1 0x20 DUP3 DUP5 SUB SLT ISZERO PUSH2 0x207 JUMPI DUP1 DUP2 REVERT JUMPDEST DUP2 CALLDATALOAD PUSH8 0xFFFFFFFFFFFFFFFF DUP1 DUP3 GT ISZERO PUSH2 0x21E JUMPI DUP3 DUP4 REVERT JUMPDEST DUP2 DUP5 ADD SWAP2 POP DUP5 PUSH1 0x1F DUP4 ADD SLT PUSH2 0x231 JUMPI DUP3 DUP4 REVERT JUMPDEST DUP2 CALLDATALOAD DUP2 DUP2 GT ISZERO PUSH2 0x243 JUMPI PUSH2 0x243 PUSH2 0x3E5 JUMP JUMPDEST PUSH1 0x40 MLOAD PUSH1 0x1F DUP3 ADD PUSH1 0x1F NOT SWAP1 DUP2 AND PUSH1 0x3F ADD AND DUP2 ADD SWAP1 DUP4 DUP3 GT DUP2 DUP4 LT OR ISZERO PUSH2 0x26B JUMPI PUSH2 0x26B PUSH2 0x3E5 JUMP JUMPDEST DUP2 PUSH1 0x40 MSTORE DUP3 DUP2 MSTORE DUP8 PUSH1 0x20 DUP5 DUP8 ADD ADD GT ISZERO PUSH2 0x283 JUMPI DUP6 DUP7 REVERT JUMPDEST DUP3 PUSH1 0x20 DUP7 ADD PUSH1 0x20 DUP4 ADD CALLDATACOPY SWAP2 DUP3 ADD PUSH1 0x20 ADD SWAP5 SWAP1 SWAP5 MSTORE SWAP6 SWAP5 POP POP POP POP POP JUMP JUMPDEST PUSH1 0x1 DUP1 PUSH1 0xA0 SHL SUB DUP4 AND DUP2 MSTORE PUSH1 0x0 PUSH1 0x20 PUSH1 0x40 DUP2 DUP5 ADD MSTORE DUP2 DUP5 SLOAD DUP4 PUSH1 0x1 DUP3 DUP2 SHR SWAP2 POP DUP1 DUP4 AND DUP1 PUSH2 0x2CF JUMPI PUSH1 0x7F DUP4 AND SWAP3 POP JUMPDEST DUP6 DUP4 LT DUP2 EQ ISZERO PUSH2 0x2ED JUMPI PUSH4 0x4E487B71 PUSH1 0xE0 SHL DUP8 MSTORE PUSH1 0x22 PUSH1 0x4 MSTORE PUSH1 0x24 DUP8 REVERT JUMPDEST PUSH1 0x40 DUP9 ADD DUP4 SWAP1 MSTORE PUSH1 0x60 DUP9 ADD DUP2 DUP1 ISZERO PUSH2 0x30C JUMPI PUSH1 0x1 DUP2 EQ PUSH2 0x31D JUMPI PUSH2 0x347 JUMP JUMPDEST PUSH1 0xFF NOT DUP7 AND DUP3 MSTORE DUP8 DUP3 ADD SWAP7 POP PUSH2 0x347 JUMP JUMPDEST PUSH1 0x0 DUP12 DUP2 MSTORE PUSH1 0x20 SWAP1 KECCAK256 DUP10 JUMPDEST DUP7 DUP2 LT ISZERO PUSH2 0x341 JUMPI DUP2 SLOAD DUP5 DUP3 ADD MSTORE SWAP1 DUP6 ADD SWAP1 DUP10 ADD PUSH2 0x328 JUMP JUMPDEST DUP4 ADD SWAP8 POP POP JUMPDEST POP SWAP5 SWAP11 SWAP10 POP POP POP POP POP POP POP POP POP POP JUMP JUMPDEST PUSH1 0x0 PUSH1 0x20 DUP1 DUP4 MSTORE DUP4 MLOAD DUP1 DUP3 DUP6 ADD MSTORE DUP3 JUMPDEST DUP2 DUP2 LT ISZERO PUSH2 0x383 JUMPI DUP6 DUP2 ADD DUP4 ADD MLOAD DUP6 DUP3 ADD PUSH1 0x40 ADD MSTORE DUP3 ADD PUSH2 0x367 JUMP JUMPDEST DUP2 DUP2 GT ISZERO PUSH2 0x394 JUMPI DUP4 PUSH1 0x40 DUP4 DUP8 ADD ADD MSTORE JUMPDEST POP PUSH1 0x1F ADD PUSH1 0x1F NOT AND SWAP3 SWAP1 SWAP3 ADD PUSH1 0x40 ADD SWAP4 SWAP3 POP POP POP JUMP JUMPDEST PUSH1 0x1 DUP2 DUP2 SHR SWAP1 DUP3 AND DUP1 PUSH2 0x3BE JUMPI PUSH1 0x7F DUP3 AND SWAP2 POP JUMPDEST PUSH1 0x20 DUP3 LT DUP2 EQ ISZERO PUSH2 0x3DF JUMPI PUSH4 0x4E487B71 PUSH1 0xE0 SHL PUSH1 0x0 MSTORE PUSH1 0x22 PUSH1 0x4 MSTORE PUSH1 0x24 PUSH1 0x0 REVERT JUMPDEST POP SWAP2 SWAP1 POP JUMP JUMPDEST PUSH4 0x4E487B71 PUSH1 0xE0 SHL PUSH1 0x0 MSTORE PUSH1 0x41 PUSH1 0x4 MSTORE PUSH1 0x24 PUSH1 0x0 REVERT INVALID LOG2 PUSH5 0x6970667358 0x22 SLT KECCAK256 PUSH28 0x992F09970B1893B0D20F13C3BC70FABAFF67FE44BBA06B7D0D97754C 0xB5 DUP12 LOG4 PUSH5 0x736F6C6343 STOP ADDMOD DIV STOP CALLER "
        },
        "gasEstimates": {
          "creation": {
            "codeDepositCost": "214600",
            "executionCost": "infinite",
            "totalCost": "infinite"
          },
          "external": {
            "": "95",
            "purpose()": "infinite",
            "setPurpose(string)": "infinite"
          }
        },
        "methodIdentifiers": {
          "purpose()": "70740aab",
          "setPurpose(string)": "eb68757f"
        }
      },
      "storageLayout": {
        "storage": [
          {
            "astId": 10,
            "contract": "contracts/YourContract2.sol:YourContract2",
            "label": "purpose",
            "offset": 0,
            "slot": "0",
            "type": "t_string_storage"
          }
        ],
        "types": {
          "t_string_storage": {
            "encoding": "bytes",
            "label": "string",
            "numberOfBytes": "32"
          }
        }
      },
      "userdoc": {
        "kind": "user",
        "methods": {},
        "version": 1
      }
    }
  }
}