{
  "address": "0x1003752F4Acc5Dd14716dFb6BCc0503e6D255A08",
  "abi": [
    {
      "inputs": [],
      "stateMutability": "payable",
      "type": "constructor"
    },
    {
      "anonymous": false,
      "inputs": [
        {
          "indexed": true,
          "internalType": "address",
          "name": "owner",
          "type": "address"
        },
        {
          "indexed": true,
          "internalType": "address",
          "name": "approved",
          "type": "address"
        },
        {
          "indexed": true,
          "internalType": "uint256",
          "name": "tokenId",
          "type": "uint256"
        }
      ],
      "name": "Approval",
      "type": "event"
    },
    {
      "anonymous": false,
      "inputs": [
        {
          "indexed": true,
          "internalType": "address",
          "name": "owner",
          "type": "address"
        },
        {
          "indexed": true,
          "internalType": "address",
          "name": "operator",
          "type": "address"
        },
        {
          "indexed": false,
          "internalType": "bool",
          "name": "approved",
          "type": "bool"
        }
      ],
      "name": "ApprovalForAll",
      "type": "event"
    },
    {
      "anonymous": false,
      "inputs": [
        {
          "indexed": true,
          "internalType": "address",
          "name": "from",
          "type": "address"
        },
        {
          "indexed": true,
          "internalType": "address",
          "name": "to",
          "type": "address"
        },
        {
          "indexed": true,
          "internalType": "uint256",
          "name": "tokenId",
          "type": "uint256"
        }
      ],
      "name": "Transfer",
      "type": "event"
    },
    {
      "inputs": [
        {
          "internalType": "address",
          "name": "to",
          "type": "address"
        },
        {
          "internalType": "uint256",
          "name": "tokenId",
          "type": "uint256"
        }
      ],
      "name": "approve",
      "outputs": [],
      "stateMutability": "nonpayable",
      "type": "function"
    },
    {
      "inputs": [
        {
          "internalType": "address",
          "name": "owner",
          "type": "address"
        }
      ],
      "name": "balanceOf",
      "outputs": [
        {
          "internalType": "uint256",
          "name": "",
          "type": "uint256"
        }
      ],
      "stateMutability": "view",
      "type": "function"
    },
    {
      "inputs": [],
      "name": "canvasImage",
      "outputs": [
        {
          "internalType": "string",
          "name": "",
          "type": "string"
        }
      ],
      "stateMutability": "view",
      "type": "function"
    },
    {
      "inputs": [
        {
          "internalType": "uint256",
          "name": "tokenId",
          "type": "uint256"
        }
      ],
      "name": "getApproved",
      "outputs": [
        {
          "internalType": "address",
          "name": "",
          "type": "address"
        }
      ],
      "stateMutability": "view",
      "type": "function"
    },
    {
      "inputs": [],
      "name": "getCanvasImage",
      "outputs": [
        {
          "internalType": "string",
          "name": "",
          "type": "string"
        }
      ],
      "stateMutability": "view",
      "type": "function"
    },
    {
      "inputs": [],
      "name": "getNFTCount",
      "outputs": [
        {
          "internalType": "uint256",
          "name": "",
          "type": "uint256"
        }
      ],
      "stateMutability": "view",
      "type": "function"
    },
    {
      "inputs": [
        {
          "internalType": "address",
          "name": "owner",
          "type": "address"
        },
        {
          "internalType": "address",
          "name": "operator",
          "type": "address"
        }
      ],
      "name": "isApprovedForAll",
      "outputs": [
        {
          "internalType": "bool",
          "name": "",
          "type": "bool"
        }
      ],
      "stateMutability": "view",
      "type": "function"
    },
    {
      "inputs": [],
      "name": "isOwner",
      "outputs": [
        {
          "internalType": "bool",
          "name": "",
          "type": "bool"
        }
      ],
      "stateMutability": "view",
      "type": "function"
    },
    {
      "inputs": [
        {
          "internalType": "string",
          "name": "uri",
          "type": "string"
        }
      ],
      "name": "mintItem",
      "outputs": [],
      "stateMutability": "payable",
      "type": "function"
    },
    {
      "inputs": [],
      "name": "name",
      "outputs": [
        {
          "internalType": "string",
          "name": "",
          "type": "string"
        }
      ],
      "stateMutability": "view",
      "type": "function"
    },
    {
      "inputs": [],
      "name": "owner",
      "outputs": [
        {
          "internalType": "address payable",
          "name": "",
          "type": "address"
        }
      ],
      "stateMutability": "view",
      "type": "function"
    },
    {
      "inputs": [
        {
          "internalType": "uint256",
          "name": "tokenId",
          "type": "uint256"
        }
      ],
      "name": "ownerOf",
      "outputs": [
        {
          "internalType": "address",
          "name": "",
          "type": "address"
        }
      ],
      "stateMutability": "view",
      "type": "function"
    },
    {
      "inputs": [
        {
          "internalType": "uint256",
          "name": "x",
          "type": "uint256"
        },
        {
          "internalType": "uint256",
          "name": "y",
          "type": "uint256"
        },
        {
          "internalType": "string",
          "name": "color",
          "type": "string"
        },
        {
          "internalType": "address",
          "name": "nftAddr",
          "type": "address"
        },
        {
          "internalType": "uint256",
          "name": "tokenId",
          "type": "uint256"
        }
      ],
      "name": "placePixel",
      "outputs": [],
      "stateMutability": "nonpayable",
      "type": "function"
    },
    {
      "inputs": [],
      "name": "price",
      "outputs": [
        {
          "internalType": "uint256",
          "name": "",
          "type": "uint256"
        }
      ],
      "stateMutability": "view",
      "type": "function"
    },
    {
      "inputs": [
        {
          "internalType": "address",
          "name": "from",
          "type": "address"
        },
        {
          "internalType": "address",
          "name": "to",
          "type": "address"
        },
        {
          "internalType": "uint256",
          "name": "tokenId",
          "type": "uint256"
        }
      ],
      "name": "safeTransferFrom",
      "outputs": [],
      "stateMutability": "nonpayable",
      "type": "function"
    },
    {
      "inputs": [
        {
          "internalType": "address",
          "name": "from",
          "type": "address"
        },
        {
          "internalType": "address",
          "name": "to",
          "type": "address"
        },
        {
          "internalType": "uint256",
          "name": "tokenId",
          "type": "uint256"
        },
        {
          "internalType": "bytes",
          "name": "_data",
          "type": "bytes"
        }
      ],
      "name": "safeTransferFrom",
      "outputs": [],
      "stateMutability": "nonpayable",
      "type": "function"
    },
    {
      "inputs": [
        {
          "internalType": "address",
          "name": "operator",
          "type": "address"
        },
        {
          "internalType": "bool",
          "name": "approved",
          "type": "bool"
        }
      ],
      "name": "setApprovalForAll",
      "outputs": [],
      "stateMutability": "nonpayable",
      "type": "function"
    },
    {
      "inputs": [
        {
          "internalType": "bytes4",
          "name": "interfaceId",
          "type": "bytes4"
        }
      ],
      "name": "supportsInterface",
      "outputs": [
        {
          "internalType": "bool",
          "name": "",
          "type": "bool"
        }
      ],
      "stateMutability": "view",
      "type": "function"
    },
    {
      "inputs": [],
      "name": "symbol",
      "outputs": [
        {
          "internalType": "string",
          "name": "",
          "type": "string"
        }
      ],
      "stateMutability": "view",
      "type": "function"
    },
    {
      "inputs": [],
      "name": "tokenIds",
      "outputs": [
        {
          "internalType": "uint256",
          "name": "_value",
          "type": "uint256"
        }
      ],
      "stateMutability": "view",
      "type": "function"
    },
    {
      "inputs": [
        {
          "internalType": "uint256",
          "name": "tokenId",
          "type": "uint256"
        }
      ],
      "name": "tokenURI",
      "outputs": [
        {
          "internalType": "string",
          "name": "",
          "type": "string"
        }
      ],
      "stateMutability": "view",
      "type": "function"
    },
    {
      "inputs": [
        {
          "internalType": "address",
          "name": "from",
          "type": "address"
        },
        {
          "internalType": "address",
          "name": "to",
          "type": "address"
        },
        {
          "internalType": "uint256",
          "name": "tokenId",
          "type": "uint256"
        }
      ],
      "name": "transferFrom",
      "outputs": [],
      "stateMutability": "nonpayable",
      "type": "function"
    },
    {
      "inputs": [
        {
          "internalType": "uint256",
          "name": "x",
          "type": "uint256"
        },
        {
          "internalType": "uint256",
          "name": "y",
          "type": "uint256"
        }
      ],
      "name": "valid",
      "outputs": [
        {
          "internalType": "bool",
          "name": "",
          "type": "bool"
        }
      ],
      "stateMutability": "pure",
      "type": "function"
    },
    {
      "inputs": [],
      "name": "withdraw",
      "outputs": [],
      "stateMutability": "nonpayable",
      "type": "function"
    }
  ],
  "transactionHash": "0x2bead06150757f153f651c011ed770b339c64fb63f9c372ad0d272587ab35145",
  "args": [],
  "solcInputHash": "379708be850b0db0a2a5d235e014c844",
  "bytecode": "0x66038d7ea4c680006008556101006040526041608081815290620022f760a03980516200003591600991602090910190620001af565b50604080518082019091526006808252651e17b9bb339f60d11b60209092019182526200006591600a91620001af565b50604080518082018252600a81526910d85b9d985cc813919560b21b60208083019182528351808501909452600684526543414e56415360d01b908401528151919291620000b691600091620001af565b508051620000cc906001906020840190620001af565b5050600b80546001600160a01b031916331790555060005b60058110156200016a5760005b60058110156200015457604080518082018252600681526523232323232360d11b60208083019182526000868152600c82528481208682529091529290922090516200013e9290620001af565b50806200014b8162000255565b915050620000f1565b5080620001618162000255565b915050620000e4565b506009600a604051602001620001829291906200035e565b604051602081830303815290604052600d9080519060200190620001a8929190620001af565b506200037f565b828054620001bd906200027f565b90600052602060002090601f016020900481019282620001e157600085556200022c565b82601f10620001fc57805160ff19168380011785556200022c565b828001600101855582156200022c579182015b828111156200022c5782518255916020019190600101906200020f565b506200023a9291506200023e565b5090565b5b808211156200023a57600081556001016200023f565b60006000198214156200027857634e487b7160e01b600052601160045260246000fd5b5060010190565b600181811c908216806200029457607f821691505b60208210811415620002b657634e487b7160e01b600052602260045260246000fd5b50919050565b8054600090600181811c9080831680620002d757607f831692505b6020808410821415620002fa57634e487b7160e01b600052602260045260246000fd5b818015620003115760018114620003235762000352565b60ff1986168952848901965062000352565b60008881526020902060005b868110156200034a5781548b8201529085019083016200032f565b505084890196505b50505050505092915050565b600062000377620003708386620002bc565b84620002bc565b949350505050565b611f68806200038f6000396000f3fe60806040526004361061014b5760003560e01c806370a08231116100b6578063a22cb4651161006f578063a22cb46514610390578063b88d4fde146103b0578063c7545849146103d0578063c87b56dd146103e3578063e571ef6f14610403578063e985e9c51461041857600080fd5b806370a08231146102ee578063714cff561461030e5780638da5cb5b146103255780638f32d59b1461034557806395d89b4114610365578063a035b1fe1461037a57600080fd5b806323b872dd1161010857806323b872dd146102365780633ccfd60b1461025657806342842e0e1461026b578063530795ea1461028b57806354279637146102ab5780636352211e146102ce57600080fd5b806301ffc9a71461015057806306fdde0314610185578063081812fc146101a7578063095ea7b3146101df57806316f70a61146102015780631a5d930114610221575b600080fd5b34801561015c57600080fd5b5061017061016b366004611871565b610461565b60405190151581526020015b60405180910390f35b34801561019157600080fd5b5061019a6104b3565b60405161017c91906118e6565b3480156101b357600080fd5b506101c76101c23660046118f9565b610545565b6040516001600160a01b03909116815260200161017c565b3480156101eb57600080fd5b506101ff6101fa366004611927565b6105d2565b005b34801561020d57600080fd5b5061017061021c366004611953565b6106e8565b34801561022d57600080fd5b5061019a610701565b34801561024257600080fd5b506101ff610251366004611975565b61078f565b34801561026257600080fd5b506101ff6107c0565b34801561027757600080fd5b506101ff610286366004611975565b610875565b34801561029757600080fd5b506101ff6102a63660046119ff565b610890565b3480156102b757600080fd5b506102c0610ac9565b60405190815260200161017c565b3480156102da57600080fd5b506101c76102e93660046118f9565b610ad9565b3480156102fa57600080fd5b506102c0610309366004611a72565b610b50565b34801561031a57600080fd5b506007546102c09081565b34801561033157600080fd5b50600b546101c7906001600160a01b031681565b34801561035157600080fd5b50600b546001600160a01b03163314610170565b34801561037157600080fd5b5061019a610bd7565b34801561038657600080fd5b506102c060085481565b34801561039c57600080fd5b506101ff6103ab366004611a8f565b610be6565b3480156103bc57600080fd5b506101ff6103cb366004611ae3565b610bf1565b6101ff6103de366004611bc3565b610c29565b3480156103ef57600080fd5b5061019a6103fe3660046118f9565b610cd8565b34801561040f57600080fd5b5061019a610e4f565b34801561042457600080fd5b50610170610433366004611c05565b6001600160a01b03918216600090815260056020908152604080832093909416825291909152205460ff1690565b60006001600160e01b031982166380ac58cd60e01b148061049257506001600160e01b03198216635b5e139f60e01b145b806104ad57506301ffc9a760e01b6001600160e01b03198316145b92915050565b6060600080546104c290611c33565b80601f01602080910402602001604051908101604052809291908181526020018280546104ee90611c33565b801561053b5780601f106105105761010080835404028352916020019161053b565b820191906000526020600020905b81548152906001019060200180831161051e57829003601f168201915b5050505050905090565b600061055082610e5e565b6105b65760405162461bcd60e51b815260206004820152602c60248201527f4552433732313a20617070726f76656420717565727920666f72206e6f6e657860448201526b34b9ba32b73a103a37b5b2b760a11b60648201526084015b60405180910390fd5b506000908152600460205260409020546001600160a01b031690565b60006105dd82610ad9565b9050806001600160a01b0316836001600160a01b0316141561064b5760405162461bcd60e51b815260206004820152602160248201527f4552433732313a20617070726f76616c20746f2063757272656e74206f776e656044820152603960f91b60648201526084016105ad565b336001600160a01b038216148061066757506106678133610433565b6106d95760405162461bcd60e51b815260206004820152603860248201527f4552433732313a20617070726f76652063616c6c6572206973206e6f74206f7760448201527f6e6572206e6f7220617070726f76656420666f7220616c6c000000000000000060648201526084016105ad565b6106e38383610e7b565b505050565b60006005831080156106fa5750600582105b9392505050565b600d805461070e90611c33565b80601f016020809104026020016040519081016040528092919081815260200182805461073a90611c33565b80156107875780601f1061075c57610100808354040283529160200191610787565b820191906000526020600020905b81548152906001019060200180831161076a57829003601f168201915b505050505081565b6107993382610ee9565b6107b55760405162461bcd60e51b81526004016105ad90611c6e565b6106e3838383610fcf565b600b546001600160a01b031633146107d757600080fd5b6040514790600090339083908381818185875af1925050503d806000811461081b576040519150601f19603f3d011682016040523d82523d6000602084013e610820565b606091505b50509050806108715760405162461bcd60e51b815260206004820152601860248201527f4661696c656420746f207769746864726177204d61746963000000000000000060448201526064016105ad565b5050565b6106e383838360405180602001604052806000815250610bf1565b61089a86866106e8565b6108f55760405162461bcd60e51b815260206004820152602660248201527f706c656173652073656c65637420636f727265637420706978656c20636f6f7260448201526564696e61746560d01b60648201526084016105ad565b816001600160a01b0381163014156109405760405162461bcd60e51b815260206004820152600e60248201526d6e6963652074727920686168612160901b60448201526064016105ad565b6040516323b872dd60e01b8152336004820152306024820152604481018390526001600160a01b038216906323b872dd90606401600060405180830381600087803b15801561098e57600080fd5b505af11580156109a2573d6000803e3d6000fd5b50506040516331a9108f60e11b8152600481018590523092506001600160a01b0384169150636352211e90602401602060405180830381865afa1580156109ed573d6000803e3d6000fd5b505050506040513d601f19601f82011682018060405250810190610a119190611cbf565b6001600160a01b031614610a5d5760405162461bcd60e51b8152602060048201526013602482015272139195081b9bdd081d1c985b9cd9995c9c9959606a1b60448201526064016105ad565b6000878152600c602090815260408083208984529091529020610a8190868661174b565b5060098585600a604051602001610a9b9493929190611d76565b604051602081830303815290604052600d9080519060200190610abf9291906117cf565b5050505050505050565b6000610ad460075490565b905090565b6000818152600260205260408120546001600160a01b0316806104ad5760405162461bcd60e51b815260206004820152602960248201527f4552433732313a206f776e657220717565727920666f72206e6f6e657869737460448201526832b73a103a37b5b2b760b91b60648201526084016105ad565b60006001600160a01b038216610bbb5760405162461bcd60e51b815260206004820152602a60248201527f4552433732313a2062616c616e636520717565727920666f7220746865207a65604482015269726f206164647265737360b01b60648201526084016105ad565b506001600160a01b031660009081526003602052604090205490565b6060600180546104c290611c33565b61087133838361116b565b610bfb3383610ee9565b610c175760405162461bcd60e51b81526004016105ad90611c6e565b610c238484848461123a565b50505050565b600854341015610c735760405162461bcd60e51b81526020600482015260156024820152741b9bdd08195b9bdd59da081d1bdad95b881c185a59605a1b60448201526064016105ad565b6000610c7e60075490565b9050610c8a338261126d565b610cca8184848080601f01602080910402602001604051908101604052809392919081815260200183838082843760009201919091525061128792505050565b6106e3600780546001019055565b6060610ce382610e5e565b610d495760405162461bcd60e51b815260206004820152603160248201527f45524337323155524953746f726167653a2055524920717565727920666f72206044820152703737b732bc34b9ba32b73a103a37b5b2b760791b60648201526084016105ad565b60008281526006602052604081208054610d6290611c33565b80601f0160208091040260200160405190810160405280929190818152602001828054610d8e90611c33565b8015610ddb5780601f10610db057610100808354040283529160200191610ddb565b820191906000526020600020905b815481529060010190602001808311610dbe57829003601f168201915b505050505090506000610df960408051602081019091526000815290565b9050805160001415610e0c575092915050565b815115610e3e578082604051602001610e26929190611da3565b60405160208183030381529060405292505050919050565b610e4784611312565b949350505050565b6060600d80546104c290611c33565b6000908152600260205260409020546001600160a01b0316151590565b600081815260046020526040902080546001600160a01b0319166001600160a01b0384169081179091558190610eb082610ad9565b6001600160a01b03167f8c5be1e5ebec7d5bd14f71427d1e84f3dd0314c0f7b2291e5b200ac8c7c3b92560405160405180910390a45050565b6000610ef482610e5e565b610f555760405162461bcd60e51b815260206004820152602c60248201527f4552433732313a206f70657261746f7220717565727920666f72206e6f6e657860448201526b34b9ba32b73a103a37b5b2b760a11b60648201526084016105ad565b6000610f6083610ad9565b9050806001600160a01b0316846001600160a01b03161480610f9b5750836001600160a01b0316610f9084610545565b6001600160a01b0316145b80610e4757506001600160a01b0380821660009081526005602090815260408083209388168352929052205460ff16610e47565b826001600160a01b0316610fe282610ad9565b6001600160a01b0316146110465760405162461bcd60e51b815260206004820152602560248201527f4552433732313a207472616e736665722066726f6d20696e636f72726563742060448201526437bbb732b960d91b60648201526084016105ad565b6001600160a01b0382166110a85760405162461bcd60e51b8152602060048201526024808201527f4552433732313a207472616e7366657220746f20746865207a65726f206164646044820152637265737360e01b60648201526084016105ad565b6110b3600082610e7b565b6001600160a01b03831660009081526003602052604081208054600192906110dc908490611de8565b90915550506001600160a01b038216600090815260036020526040812080546001929061110a908490611dff565b909155505060008181526002602052604080822080546001600160a01b0319166001600160a01b0386811691821790925591518493918716917fddf252ad1be2c89b69c2b068fc378daa952ba7f163c4a11628f55a4df523b3ef91a4505050565b816001600160a01b0316836001600160a01b031614156111cd5760405162461bcd60e51b815260206004820152601960248201527f4552433732313a20617070726f766520746f2063616c6c65720000000000000060448201526064016105ad565b6001600160a01b03838116600081815260056020908152604080832094871680845294825291829020805460ff191686151590811790915591519182527f17307eab39ab6107e8899845ad3d59bd9653f200f220920489ca2b5937696c31910160405180910390a3505050565b611245848484610fcf565b611251848484846113e9565b610c235760405162461bcd60e51b81526004016105ad90611e17565b6108718282604051806020016040528060008152506114e7565b61129082610e5e565b6112f35760405162461bcd60e51b815260206004820152602e60248201527f45524337323155524953746f726167653a2055524920736574206f66206e6f6e60448201526d32bc34b9ba32b73a103a37b5b2b760911b60648201526084016105ad565b600082815260066020908152604090912082516106e3928401906117cf565b606061131d82610e5e565b6113815760405162461bcd60e51b815260206004820152602f60248201527f4552433732314d657461646174613a2055524920717565727920666f72206e6f60448201526e3732bc34b9ba32b73a103a37b5b2b760891b60648201526084016105ad565b600061139860408051602081019091526000815290565b905060008151116113b857604051806020016040528060008152506106fa565b806113c28461151a565b6040516020016113d3929190611da3565b6040516020818303038152906040529392505050565b60006001600160a01b0384163b156114dc57604051630a85bd0160e11b81526001600160a01b0385169063150b7a029061142d903390899088908890600401611e69565b6020604051808303816000875af1925050508015611468575060408051601f3d908101601f1916820190925261146591810190611ea6565b60015b6114c2573d808015611496576040519150601f19603f3d011682016040523d82523d6000602084013e61149b565b606091505b5080516114ba5760405162461bcd60e51b81526004016105ad90611e17565b805181602001fd5b6001600160e01b031916630a85bd0160e11b149050610e47565b506001949350505050565b6114f18383611618565b6114fe60008484846113e9565b6106e35760405162461bcd60e51b81526004016105ad90611e17565b60608161153e5750506040805180820190915260018152600360fc1b602082015290565b8160005b8115611568578061155281611ec3565b91506115619050600a83611ef4565b9150611542565b60008167ffffffffffffffff81111561158357611583611acd565b6040519080825280601f01601f1916602001820160405280156115ad576020820181803683370190505b5090505b8415610e47576115c2600183611de8565b91506115cf600a86611f08565b6115da906030611dff565b60f81b8183815181106115ef576115ef611f1c565b60200101906001600160f81b031916908160001a905350611611600a86611ef4565b94506115b1565b6001600160a01b03821661166e5760405162461bcd60e51b815260206004820181905260248201527f4552433732313a206d696e7420746f20746865207a65726f206164647265737360448201526064016105ad565b61167781610e5e565b156116c45760405162461bcd60e51b815260206004820152601c60248201527f4552433732313a20746f6b656e20616c7265616479206d696e7465640000000060448201526064016105ad565b6001600160a01b03821660009081526003602052604081208054600192906116ed908490611dff565b909155505060008181526002602052604080822080546001600160a01b0319166001600160a01b03861690811790915590518392907fddf252ad1be2c89b69c2b068fc378daa952ba7f163c4a11628f55a4df523b3ef908290a45050565b82805461175790611c33565b90600052602060002090601f01602090048101928261177957600085556117bf565b82601f106117925782800160ff198235161785556117bf565b828001600101855582156117bf579182015b828111156117bf5782358255916020019190600101906117a4565b506117cb929150611843565b5090565b8280546117db90611c33565b90600052602060002090601f0160209004810192826117fd57600085556117bf565b82601f1061181657805160ff19168380011785556117bf565b828001600101855582156117bf579182015b828111156117bf578251825591602001919060010190611828565b5b808211156117cb5760008155600101611844565b6001600160e01b03198116811461186e57600080fd5b50565b60006020828403121561188357600080fd5b81356106fa81611858565b60005b838110156118a9578181015183820152602001611891565b83811115610c235750506000910152565b600081518084526118d281602086016020860161188e565b601f01601f19169290920160200192915050565b6020815260006106fa60208301846118ba565b60006020828403121561190b57600080fd5b5035919050565b6001600160a01b038116811461186e57600080fd5b6000806040838503121561193a57600080fd5b823561194581611912565b946020939093013593505050565b6000806040838503121561196657600080fd5b50508035926020909101359150565b60008060006060848603121561198a57600080fd5b833561199581611912565b925060208401356119a581611912565b929592945050506040919091013590565b60008083601f8401126119c857600080fd5b50813567ffffffffffffffff8111156119e057600080fd5b6020830191508360208285010111156119f857600080fd5b9250929050565b60008060008060008060a08789031215611a1857600080fd5b8635955060208701359450604087013567ffffffffffffffff811115611a3d57600080fd5b611a4989828a016119b6565b9095509350506060870135611a5d81611912565b80925050608087013590509295509295509295565b600060208284031215611a8457600080fd5b81356106fa81611912565b60008060408385031215611aa257600080fd5b8235611aad81611912565b915060208301358015158114611ac257600080fd5b809150509250929050565b634e487b7160e01b600052604160045260246000fd5b60008060008060808587031215611af957600080fd5b8435611b0481611912565b93506020850135611b1481611912565b925060408501359150606085013567ffffffffffffffff80821115611b3857600080fd5b818701915087601f830112611b4c57600080fd5b813581811115611b5e57611b5e611acd565b604051601f8201601f19908116603f01168101908382118183101715611b8657611b86611acd565b816040528281528a6020848701011115611b9f57600080fd5b82602086016020830137600060208483010152809550505050505092959194509250565b60008060208385031215611bd657600080fd5b823567ffffffffffffffff811115611bed57600080fd5b611bf9858286016119b6565b90969095509350505050565b60008060408385031215611c1857600080fd5b8235611c2381611912565b91506020830135611ac281611912565b600181811c90821680611c4757607f821691505b60208210811415611c6857634e487b7160e01b600052602260045260246000fd5b50919050565b60208082526031908201527f4552433732313a207472616e736665722063616c6c6572206973206e6f74206f6040820152701ddb995c881b9bdc88185c1c1c9bdd9959607a1b606082015260800190565b600060208284031215611cd157600080fd5b81516106fa81611912565b8054600090600181811c9080831680611cf657607f831692505b6020808410821415611d1857634e487b7160e01b600052602260045260246000fd5b818015611d2c5760018114611d3d57611d6a565b60ff19861689528489019650611d6a565b60008881526020902060005b86811015611d625781548b820152908501908301611d49565b505084890196505b50505050505092915050565b6000611d828287611cdc565b848682376000908501908152611d988185611cdc565b979650505050505050565b60008351611db581846020880161188e565b835190830190611dc981836020880161188e565b01949350505050565b634e487b7160e01b600052601160045260246000fd5b600082821015611dfa57611dfa611dd2565b500390565b60008219821115611e1257611e12611dd2565b500190565b60208082526032908201527f4552433732313a207472616e7366657220746f206e6f6e20455243373231526560408201527131b2b4bb32b91034b6b83632b6b2b73a32b960711b606082015260800190565b6001600160a01b0385811682528416602082015260408101839052608060608201819052600090611e9c908301846118ba565b9695505050505050565b600060208284031215611eb857600080fd5b81516106fa81611858565b6000600019821415611ed757611ed7611dd2565b5060010190565b634e487b7160e01b600052601260045260246000fd5b600082611f0357611f03611ede565b500490565b600082611f1757611f17611ede565b500690565b634e487b7160e01b600052603260045260246000fdfea26469706673582212200ad14d4cc0316c8809473d6cc5883e542ae5d0b8e9c7ae119064976f6af0dab164736f6c634300080a00333c73766720786d6c6e733d22687474703a2f2f7777772e77332e6f72672f323030302f737667222077696474683d2232303022206865696768743d22323030223e",
  "devdoc": {
    "kind": "dev",
    "methods": {
      "approve(address,uint256)": {
        "details": "See {IERC721-approve}."
      },
      "balanceOf(address)": {
        "details": "See {IERC721-balanceOf}."
      },
      "getApproved(uint256)": {
        "details": "See {IERC721-getApproved}."
      },
      "isApprovedForAll(address,address)": {
        "details": "See {IERC721-isApprovedForAll}."
      },
      "name()": {
        "details": "See {IERC721Metadata-name}."
      },
      "ownerOf(uint256)": {
        "details": "See {IERC721-ownerOf}."
      },
      "safeTransferFrom(address,address,uint256)": {
        "details": "See {IERC721-safeTransferFrom}."
      },
      "safeTransferFrom(address,address,uint256,bytes)": {
        "details": "See {IERC721-safeTransferFrom}."
      },
      "setApprovalForAll(address,bool)": {
        "details": "See {IERC721-setApprovalForAll}."
      },
      "supportsInterface(bytes4)": {
        "details": "See {IERC165-supportsInterface}."
      },
      "symbol()": {
        "details": "See {IERC721Metadata-symbol}."
      },
      "tokenURI(uint256)": {
        "details": "See {IERC721Metadata-tokenURI}."
      },
      "transferFrom(address,address,uint256)": {
        "details": "See {IERC721-transferFrom}."
      }
    },
    "version": 1
  },
  "userdoc": {
    "kind": "user",
    "methods": {},
    "version": 1
  },
  "storageLayout": {
    "storage": [
      {
        "astId": 25,
        "contract": "contracts/CanvasNFT.sol:CanvasNFT",
        "label": "_name",
        "offset": 0,
        "slot": "0",
        "type": "t_string_storage"
      },
      {
        "astId": 27,
        "contract": "contracts/CanvasNFT.sol:CanvasNFT",
        "label": "_symbol",
        "offset": 0,
        "slot": "1",
        "type": "t_string_storage"
      },
      {
        "astId": 31,
        "contract": "contracts/CanvasNFT.sol:CanvasNFT",
        "label": "_owners",
        "offset": 0,
        "slot": "2",
        "type": "t_mapping(t_uint256,t_address)"
      },
      {
        "astId": 35,
        "contract": "contracts/CanvasNFT.sol:CanvasNFT",
        "label": "_balances",
        "offset": 0,
        "slot": "3",
        "type": "t_mapping(t_address,t_uint256)"
      },
      {
        "astId": 39,
        "contract": "contracts/CanvasNFT.sol:CanvasNFT",
        "label": "_tokenApprovals",
        "offset": 0,
        "slot": "4",
        "type": "t_mapping(t_uint256,t_address)"
      },
      {
        "astId": 45,
        "contract": "contracts/CanvasNFT.sol:CanvasNFT",
        "label": "_operatorApprovals",
        "offset": 0,
        "slot": "5",
        "type": "t_mapping(t_address,t_mapping(t_address,t_bool))"
      },
      {
        "astId": 1012,
        "contract": "contracts/CanvasNFT.sol:CanvasNFT",
        "label": "_tokenURIs",
        "offset": 0,
        "slot": "6",
        "type": "t_mapping(t_uint256,t_string_storage)"
      },
      {
        "astId": 1810,
        "contract": "contracts/CanvasNFT.sol:CanvasNFT",
        "label": "tokenIds",
        "offset": 0,
        "slot": "7",
        "type": "t_struct(Counter)1477_storage"
      },
      {
        "astId": 1813,
        "contract": "contracts/CanvasNFT.sol:CanvasNFT",
        "label": "price",
        "offset": 0,
        "slot": "8",
        "type": "t_uint256"
      },
      {
        "astId": 1816,
        "contract": "contracts/CanvasNFT.sol:CanvasNFT",
        "label": "svgPartOne",
        "offset": 0,
        "slot": "9",
        "type": "t_string_storage"
      },
      {
        "astId": 1819,
        "contract": "contracts/CanvasNFT.sol:CanvasNFT",
        "label": "svgPartTwo",
        "offset": 0,
        "slot": "10",
        "type": "t_string_storage"
      },
      {
        "astId": 1821,
        "contract": "contracts/CanvasNFT.sol:CanvasNFT",
        "label": "owner",
        "offset": 0,
        "slot": "11",
        "type": "t_address_payable"
      },
      {
        "astId": 1827,
        "contract": "contracts/CanvasNFT.sol:CanvasNFT",
        "label": "canvas",
        "offset": 0,
        "slot": "12",
        "type": "t_mapping(t_uint256,t_mapping(t_uint256,t_string_storage))"
      },
      {
        "astId": 1829,
        "contract": "contracts/CanvasNFT.sol:CanvasNFT",
        "label": "canvasImage",
        "offset": 0,
        "slot": "13",
        "type": "t_string_storage"
      }
    ],
    "types": {
      "t_address": {
        "encoding": "inplace",
        "label": "address",
        "numberOfBytes": "20"
      },
      "t_address_payable": {
        "encoding": "inplace",
        "label": "address payable",
        "numberOfBytes": "20"
      },
      "t_bool": {
        "encoding": "inplace",
        "label": "bool",
        "numberOfBytes": "1"
      },
      "t_mapping(t_address,t_bool)": {
        "encoding": "mapping",
        "key": "t_address",
        "label": "mapping(address => bool)",
        "numberOfBytes": "32",
        "value": "t_bool"
      },
      "t_mapping(t_address,t_mapping(t_address,t_bool))": {
        "encoding": "mapping",
        "key": "t_address",
        "label": "mapping(address => mapping(address => bool))",
        "numberOfBytes": "32",
        "value": "t_mapping(t_address,t_bool)"
      },
      "t_mapping(t_address,t_uint256)": {
        "encoding": "mapping",
        "key": "t_address",
        "label": "mapping(address => uint256)",
        "numberOfBytes": "32",
        "value": "t_uint256"
      },
      "t_mapping(t_uint256,t_address)": {
        "encoding": "mapping",
        "key": "t_uint256",
        "label": "mapping(uint256 => address)",
        "numberOfBytes": "32",
        "value": "t_address"
      },
      "t_mapping(t_uint256,t_mapping(t_uint256,t_string_storage))": {
        "encoding": "mapping",
        "key": "t_uint256",
        "label": "mapping(uint256 => mapping(uint256 => string))",
        "numberOfBytes": "32",
        "value": "t_mapping(t_uint256,t_string_storage)"
      },
      "t_mapping(t_uint256,t_string_storage)": {
        "encoding": "mapping",
        "key": "t_uint256",
        "label": "mapping(uint256 => string)",
        "numberOfBytes": "32",
        "value": "t_string_storage"
      },
      "t_string_storage": {
        "encoding": "bytes",
        "label": "string",
        "numberOfBytes": "32"
      },
      "t_struct(Counter)1477_storage": {
        "encoding": "inplace",
        "label": "struct Counters.Counter",
        "members": [
          {
            "astId": 1476,
            "contract": "contracts/CanvasNFT.sol:CanvasNFT",
            "label": "_value",
            "offset": 0,
            "slot": "0",
            "type": "t_uint256"
          }
        ],
        "numberOfBytes": "32"
      },
      "t_uint256": {
        "encoding": "inplace",
        "label": "uint256",
        "numberOfBytes": "32"
      }
    }
  }
}