{
  "_format": "hh-sol-artifact-1",
  "contractName": "PixelNFT",
  "sourceName": "contracts/PixelNFT.sol",
  "abi": [
    {
      "inputs": [],
      "stateMutability": "payable",
      "type": "constructor"
    },
    {
      "inputs": [
        {
          "internalType": "string",
          "name": "color",
          "type": "string"
        }
      ],
      "name": "InvalidColor",
      "type": "error"
    },
    {
      "anonymous": false,
      "inputs": [
        {
          "indexed": true,
          "internalType": "address",
          "name": "owner",
          "type": "address"
        },
        {
          "indexed": true,
          "internalType": "address",
          "name": "approved",
          "type": "address"
        },
        {
          "indexed": true,
          "internalType": "uint256",
          "name": "tokenId",
          "type": "uint256"
        }
      ],
      "name": "Approval",
      "type": "event"
    },
    {
      "anonymous": false,
      "inputs": [
        {
          "indexed": true,
          "internalType": "address",
          "name": "owner",
          "type": "address"
        },
        {
          "indexed": true,
          "internalType": "address",
          "name": "operator",
          "type": "address"
        },
        {
          "indexed": false,
          "internalType": "bool",
          "name": "approved",
          "type": "bool"
        }
      ],
      "name": "ApprovalForAll",
      "type": "event"
    },
    {
      "anonymous": false,
      "inputs": [
        {
          "indexed": true,
          "internalType": "address",
          "name": "from",
          "type": "address"
        },
        {
          "indexed": true,
          "internalType": "address",
          "name": "to",
          "type": "address"
        },
        {
          "indexed": true,
          "internalType": "uint256",
          "name": "tokenId",
          "type": "uint256"
        }
      ],
      "name": "Transfer",
      "type": "event"
    },
    {
      "inputs": [
        {
          "internalType": "address",
          "name": "to",
          "type": "address"
        },
        {
          "internalType": "uint256",
          "name": "tokenId",
          "type": "uint256"
        }
      ],
      "name": "approve",
      "outputs": [],
      "stateMutability": "nonpayable",
      "type": "function"
    },
    {
      "inputs": [
        {
          "internalType": "address",
          "name": "owner",
          "type": "address"
        }
      ],
      "name": "balanceOf",
      "outputs": [
        {
          "internalType": "uint256",
          "name": "",
          "type": "uint256"
        }
      ],
      "stateMutability": "view",
      "type": "function"
    },
    {
      "inputs": [
        {
          "internalType": "uint256",
          "name": "",
          "type": "uint256"
        }
      ],
      "name": "colormap",
      "outputs": [
        {
          "internalType": "string",
          "name": "",
          "type": "string"
        }
      ],
      "stateMutability": "view",
      "type": "function"
    },
    {
      "inputs": [],
      "name": "getAllNFTs",
      "outputs": [
        {
          "internalType": "string[]",
          "name": "",
          "type": "string[]"
        }
      ],
      "stateMutability": "view",
      "type": "function"
    },
    {
      "inputs": [
        {
          "internalType": "uint256",
          "name": "tokenId",
          "type": "uint256"
        }
      ],
      "name": "getApproved",
      "outputs": [
        {
          "internalType": "address",
          "name": "",
          "type": "address"
        }
      ],
      "stateMutability": "view",
      "type": "function"
    },
    {
      "inputs": [
        {
          "internalType": "uint256",
          "name": "id",
          "type": "uint256"
        }
      ],
      "name": "getColor",
      "outputs": [
        {
          "internalType": "string",
          "name": "",
          "type": "string"
        }
      ],
      "stateMutability": "view",
      "type": "function"
    },
    {
      "inputs": [],
      "name": "getNFTCount",
      "outputs": [
        {
          "internalType": "uint256",
          "name": "",
          "type": "uint256"
        }
      ],
      "stateMutability": "view",
      "type": "function"
    },
    {
      "inputs": [
        {
          "internalType": "address",
          "name": "owner",
          "type": "address"
        },
        {
          "internalType": "address",
          "name": "operator",
          "type": "address"
        }
      ],
      "name": "isApprovedForAll",
      "outputs": [
        {
          "internalType": "bool",
          "name": "",
          "type": "bool"
        }
      ],
      "stateMutability": "view",
      "type": "function"
    },
    {
      "inputs": [],
      "name": "isOwner",
      "outputs": [
        {
          "internalType": "bool",
          "name": "",
          "type": "bool"
        }
      ],
      "stateMutability": "view",
      "type": "function"
    },
    {
      "inputs": [
        {
          "internalType": "string",
          "name": "color",
          "type": "string"
        }
      ],
      "name": "mintItem",
      "outputs": [],
      "stateMutability": "payable",
      "type": "function"
    },
    {
      "inputs": [],
      "name": "name",
      "outputs": [
        {
          "internalType": "string",
          "name": "",
          "type": "string"
        }
      ],
      "stateMutability": "view",
      "type": "function"
    },
    {
      "inputs": [],
      "name": "owner",
      "outputs": [
        {
          "internalType": "address payable",
          "name": "",
          "type": "address"
        }
      ],
      "stateMutability": "view",
      "type": "function"
    },
    {
      "inputs": [
        {
          "internalType": "uint256",
          "name": "tokenId",
          "type": "uint256"
        }
      ],
      "name": "ownerOf",
      "outputs": [
        {
          "internalType": "address",
          "name": "",
          "type": "address"
        }
      ],
      "stateMutability": "view",
      "type": "function"
    },
    {
      "inputs": [],
      "name": "price",
      "outputs": [
        {
          "internalType": "uint256",
          "name": "",
          "type": "uint256"
        }
      ],
      "stateMutability": "view",
      "type": "function"
    },
    {
      "inputs": [
        {
          "internalType": "address",
          "name": "from",
          "type": "address"
        },
        {
          "internalType": "address",
          "name": "to",
          "type": "address"
        },
        {
          "internalType": "uint256",
          "name": "tokenId",
          "type": "uint256"
        }
      ],
      "name": "safeTransferFrom",
      "outputs": [],
      "stateMutability": "nonpayable",
      "type": "function"
    },
    {
      "inputs": [
        {
          "internalType": "address",
          "name": "from",
          "type": "address"
        },
        {
          "internalType": "address",
          "name": "to",
          "type": "address"
        },
        {
          "internalType": "uint256",
          "name": "tokenId",
          "type": "uint256"
        },
        {
          "internalType": "bytes",
          "name": "_data",
          "type": "bytes"
        }
      ],
      "name": "safeTransferFrom",
      "outputs": [],
      "stateMutability": "nonpayable",
      "type": "function"
    },
    {
      "inputs": [
        {
          "internalType": "address",
          "name": "operator",
          "type": "address"
        },
        {
          "internalType": "bool",
          "name": "approved",
          "type": "bool"
        }
      ],
      "name": "setApprovalForAll",
      "outputs": [],
      "stateMutability": "nonpayable",
      "type": "function"
    },
    {
      "inputs": [
        {
          "internalType": "bytes4",
          "name": "interfaceId",
          "type": "bytes4"
        }
      ],
      "name": "supportsInterface",
      "outputs": [
        {
          "internalType": "bool",
          "name": "",
          "type": "bool"
        }
      ],
      "stateMutability": "view",
      "type": "function"
    },
    {
      "inputs": [],
      "name": "symbol",
      "outputs": [
        {
          "internalType": "string",
          "name": "",
          "type": "string"
        }
      ],
      "stateMutability": "view",
      "type": "function"
    },
    {
      "inputs": [],
      "name": "tokenIds",
      "outputs": [
        {
          "internalType": "uint256",
          "name": "_value",
          "type": "uint256"
        }
      ],
      "stateMutability": "view",
      "type": "function"
    },
    {
      "inputs": [
        {
          "internalType": "uint256",
          "name": "tokenId",
          "type": "uint256"
        }
      ],
      "name": "tokenURI",
      "outputs": [
        {
          "internalType": "string",
          "name": "",
          "type": "string"
        }
      ],
      "stateMutability": "view",
      "type": "function"
    },
    {
      "inputs": [
        {
          "internalType": "address",
          "name": "from",
          "type": "address"
        },
        {
          "internalType": "address",
          "name": "to",
          "type": "address"
        },
        {
          "internalType": "uint256",
          "name": "tokenId",
          "type": "uint256"
        }
      ],
      "name": "transferFrom",
      "outputs": [],
      "stateMutability": "nonpayable",
      "type": "function"
    },
    {
      "inputs": [
        {
          "internalType": "string",
          "name": "color",
          "type": "string"
        }
      ],
      "name": "valid",
      "outputs": [
        {
          "internalType": "bool",
          "name": "",
          "type": "bool"
        }
      ],
      "stateMutability": "pure",
      "type": "function"
    },
    {
      "inputs": [],
      "name": "withdraw",
      "outputs": [],
      "stateMutability": "nonpayable",
      "type": "function"
    }
  ],
  "bytecode": "0x66038d7ea4c68000600855610120604052606d608081815290620026fd60a03980516200003591600991602090910190620000e8565b506040805180820190915260098082526811179f1e17b9bb339f60b91b60209092019182526200006891600a91620000e8565b506040805180820182526009815268141a5e195b0813919560ba1b602080830191825283518085019094526005845264141256115360da1b908401528151919291620000b791600091620000e8565b508051620000cd906001906020840190620000e8565b5050600b80546001600160a01b0319163317905550620001cb565b828054620000f6906200018e565b90600052602060002090601f0160209004810192826200011a576000855562000165565b82601f106200013557805160ff191683800117855562000165565b8280016001018555821562000165579182015b828111156200016557825182559160200191906001019062000148565b506200017392915062000177565b5090565b5b8082111562000173576000815560010162000178565b600181811c90821680620001a357607f821691505b60208210811415620001c557634e487b7160e01b600052602260045260246000fd5b50919050565b61252280620001db6000396000f3fe60806040526004361061014b5760003560e01c806380057b9a116100b6578063a22cb4651161006f578063a22cb4651461039b578063b88d4fde146103bb578063c7545849146103db578063c87b56dd146103ee578063e0391b091461040e578063e985e9c51461043057600080fd5b806380057b9a146102f05780638da5cb5b146103105780638f32d59b1461033057806395d89b41146103505780639791c09714610365578063a035b1fe1461038557600080fd5b80633ccfd60b116101085780633ccfd60b1461024157806342842e0e1461025657806354279637146102765780636352211e1461029957806370a08231146102b9578063714cff56146102d957600080fd5b806301ffc9a71461015057806306fdde0314610185578063081812fc146101a7578063095ea7b3146101df5780630990024a1461020157806323b872dd14610221575b600080fd5b34801561015c57600080fd5b5061017061016b366004611c51565b610479565b60405190151581526020015b60405180910390f35b34801561019157600080fd5b5061019a6104cb565b60405161017c9190611cc6565b3480156101b357600080fd5b506101c76101c2366004611cd9565b61055d565b6040516001600160a01b03909116815260200161017c565b3480156101eb57600080fd5b506101ff6101fa366004611d0e565b6105ea565b005b34801561020d57600080fd5b5061019a61021c366004611cd9565b610700565b34801561022d57600080fd5b506101ff61023c366004611d38565b61079a565b34801561024d57600080fd5b506101ff6107cb565b34801561026257600080fd5b506101ff610271366004611d38565b610880565b34801561028257600080fd5b5061028b61089b565b60405190815260200161017c565b3480156102a557600080fd5b506101c76102b4366004611cd9565b6108ab565b3480156102c557600080fd5b5061028b6102d4366004611d74565b610922565b3480156102e557600080fd5b5060075461028b9081565b3480156102fc57600080fd5b5061019a61030b366004611cd9565b6109a9565b34801561031c57600080fd5b50600b546101c7906001600160a01b031681565b34801561033c57600080fd5b50600b546001600160a01b03163314610170565b34801561035c57600080fd5b5061019a610a4b565b34801561037157600080fd5b50610170610380366004611d8f565b610a5a565b34801561039157600080fd5b5061028b60085481565b3480156103a757600080fd5b506101ff6103b6366004611e01565b610aee565b3480156103c757600080fd5b506101ff6103d6366004611e53565b610af9565b6101ff6103e9366004611d8f565b610b31565b3480156103fa57600080fd5b5061019a610409366004611cd9565b610ced565b34801561041a57600080fd5b50610423610e64565b60405161017c9190611f2f565b34801561043c57600080fd5b5061017061044b366004611f91565b6001600160a01b03918216600090815260056020908152604080832093909416825291909152205460ff1690565b60006001600160e01b031982166380ac58cd60e01b14806104aa57506001600160e01b03198216635b5e139f60e01b145b806104c557506301ffc9a760e01b6001600160e01b03198316145b92915050565b6060600080546104da90611fc4565b80601f016020809104026020016040519081016040528092919081815260200182805461050690611fc4565b80156105535780601f1061052857610100808354040283529160200191610553565b820191906000526020600020905b81548152906001019060200180831161053657829003601f168201915b5050505050905090565b600061056882610f2c565b6105ce5760405162461bcd60e51b815260206004820152602c60248201527f4552433732313a20617070726f76656420717565727920666f72206e6f6e657860448201526b34b9ba32b73a103a37b5b2b760a11b60648201526084015b60405180910390fd5b506000908152600460205260409020546001600160a01b031690565b60006105f5826108ab565b9050806001600160a01b0316836001600160a01b031614156106635760405162461bcd60e51b815260206004820152602160248201527f4552433732313a20617070726f76616c20746f2063757272656e74206f776e656044820152603960f91b60648201526084016105c5565b336001600160a01b038216148061067f575061067f813361044b565b6106f15760405162461bcd60e51b815260206004820152603860248201527f4552433732313a20617070726f76652063616c6c6572206973206e6f74206f7760448201527f6e6572206e6f7220617070726f76656420666f7220616c6c000000000000000060648201526084016105c5565b6106fb8383610f49565b505050565b600c602052600090815260409020805461071990611fc4565b80601f016020809104026020016040519081016040528092919081815260200182805461074590611fc4565b80156107925780601f1061076757610100808354040283529160200191610792565b820191906000526020600020905b81548152906001019060200180831161077557829003601f168201915b505050505081565b6107a43382610fb7565b6107c05760405162461bcd60e51b81526004016105c590611ff9565b6106fb83838361109d565b600b546001600160a01b031633146107e257600080fd5b6040514790600090339083908381818185875af1925050503d8060008114610826576040519150601f19603f3d011682016040523d82523d6000602084013e61082b565b606091505b505090508061087c5760405162461bcd60e51b815260206004820152601860248201527f4661696c656420746f207769746864726177204d61746963000000000000000060448201526064016105c5565b5050565b6106fb83838360405180602001604052806000815250610af9565b60006108a660075490565b905090565b6000818152600260205260408120546001600160a01b0316806104c55760405162461bcd60e51b815260206004820152602960248201527f4552433732313a206f776e657220717565727920666f72206e6f6e657869737460448201526832b73a103a37b5b2b760b91b60648201526084016105c5565b60006001600160a01b03821661098d5760405162461bcd60e51b815260206004820152602a60248201527f4552433732313a2062616c616e636520717565727920666f7220746865207a65604482015269726f206164647265737360b01b60648201526084016105c5565b506001600160a01b031660009081526003602052604090205490565b6000818152600c602052604090208054606091906109c690611fc4565b80601f01602080910402602001604051908101604052809291908181526020018280546109f290611fc4565b8015610a3f5780601f10610a1457610100808354040283529160200191610a3f565b820191906000526020600020905b815481529060010190602001808311610a2257829003601f168201915b50505050509050919050565b6060600180546104da90611fc4565b6000610a9b83838080601f01602080910402602001604051908101604052809392919081815260200183838082843760009201919091525061123992505050565b60061480610ae75750610ae383838080601f01602080910402602001604051908101604052809392919081815260200183838082843760009201919091525061123992505050565b6003145b9392505050565b61087c33838361133c565b610b033383610fb7565b610b1f5760405162461bcd60e51b81526004016105c590611ff9565b610b2b8484848461140b565b50505050565b610b3b8282610a5a565b610b5c578181604051635f88f2db60e11b81526004016105c592919061204a565b600854341015610ba65760405162461bcd60e51b81526020600482015260156024820152741b9bdd08195b9bdd59da081d1bdad95b881c185a59605a1b60448201526064016105c5565b600060098383600a604051602001610bc19493929190612113565b60405160208183030381529060405290506000610bdd60075490565b90506000610c158585610bef8661143e565b604051602001610c0193929190612140565b60405160208183030381529060405261143e565b9050600081604051602001610c2a91906121f6565b60408051601f19818403018152606083019091526039808352909250610c58919061241860208301396115a4565b610c886040518060400160405280600e81526020016d46696e616c20746f6b656e55524960901b815250826115ea565b610ca9604051806060016040528060398152602001612451603991396115a4565b610cb3338461162f565b6000838152600c60205260409020610ccc908787611b2e565b50610cd78382611649565b610ce5600780546001019055565b505050505050565b6060610cf882610f2c565b610d5e5760405162461bcd60e51b815260206004820152603160248201527f45524337323155524953746f726167653a2055524920717565727920666f72206044820152703737b732bc34b9ba32b73a103a37b5b2b760791b60648201526084016105c5565b60008281526006602052604081208054610d7790611fc4565b80601f0160208091040260200160405190810160405280929190818152602001828054610da390611fc4565b8015610df05780601f10610dc557610100808354040283529160200191610df0565b820191906000526020600020905b815481529060010190602001808311610dd357829003601f168201915b505050505090506000610e0e60408051602081019091526000815290565b9050805160001415610e21575092915050565b815115610e53578082604051602001610e3b92919061223b565b60405160208183030381529060405292505050919050565b610e5c846116d4565b949350505050565b6060610e876040518060600160405280602381526020016124ca602391396115a4565b6000610e9260075490565b67ffffffffffffffff811115610eaa57610eaa611e3d565b604051908082528060200260200182016040528015610edd57816020015b6060815260200190600190039081610ec85790505b50905060005b600754811015610f2657610ef681610ced565b828281518110610f0857610f0861226a565b60200260200101819052508080610f1e90612296565b915050610ee3565b50919050565b6000908152600260205260409020546001600160a01b0316151590565b600081815260046020526040902080546001600160a01b0319166001600160a01b0384169081179091558190610f7e826108ab565b6001600160a01b03167f8c5be1e5ebec7d5bd14f71427d1e84f3dd0314c0f7b2291e5b200ac8c7c3b92560405160405180910390a45050565b6000610fc282610f2c565b6110235760405162461bcd60e51b815260206004820152602c60248201527f4552433732313a206f70657261746f7220717565727920666f72206e6f6e657860448201526b34b9ba32b73a103a37b5b2b760a11b60648201526084016105c5565b600061102e836108ab565b9050806001600160a01b0316846001600160a01b031614806110695750836001600160a01b031661105e8461055d565b6001600160a01b0316145b80610e5c57506001600160a01b0380821660009081526005602090815260408083209388168352929052205460ff16610e5c565b826001600160a01b03166110b0826108ab565b6001600160a01b0316146111145760405162461bcd60e51b815260206004820152602560248201527f4552433732313a207472616e736665722066726f6d20696e636f72726563742060448201526437bbb732b960d91b60648201526084016105c5565b6001600160a01b0382166111765760405162461bcd60e51b8152602060048201526024808201527f4552433732313a207472616e7366657220746f20746865207a65726f206164646044820152637265737360e01b60648201526084016105c5565b611181600082610f49565b6001600160a01b03831660009081526003602052604081208054600192906111aa9084906122b1565b90915550506001600160a01b03821660009081526003602052604081208054600192906111d89084906122c8565b909155505060008181526002602052604080822080546001600160a01b0319166001600160a01b0386811691821790925591518493918716917fddf252ad1be2c89b69c2b068fc378daa952ba7f163c4a11628f55a4df523b3ef91a4505050565b8051600090819081905b8082101561133357600085838151811061125f5761125f61226a565b01602001516001600160f81b0319169050600160ff1b81101561128e576112876001846122c8565b9250611320565b600760fd1b6001600160f81b0319821610156112af576112876002846122c8565b600f60fc1b6001600160f81b0319821610156112d0576112876003846122c8565b601f60fb1b6001600160f81b0319821610156112f1576112876004846122c8565b603f60fa1b6001600160f81b031982161015611312576112876005846122c8565b61131d6006846122c8565b92505b508261132b81612296565b935050611243565b50909392505050565b816001600160a01b0316836001600160a01b0316141561139e5760405162461bcd60e51b815260206004820152601960248201527f4552433732313a20617070726f766520746f2063616c6c65720000000000000060448201526064016105c5565b6001600160a01b03838116600081815260056020908152604080832094871680845294825291829020805460ff191686151590811790915591519182527f17307eab39ab6107e8899845ad3d59bd9653f200f220920489ca2b5937696c31910160405180910390a3505050565b61141684848461109d565b611422848484846117ab565b610b2b5760405162461bcd60e51b81526004016105c5906122e0565b80516060908061145e575050604080516020810190915260008152919050565b6000600361146d8360026122c8565b6114779190612348565b61148290600461235c565b905060006114918260206122c8565b67ffffffffffffffff8111156114a9576114a9611e3d565b6040519080825280601f01601f1916602001820160405280156114d3576020820181803683370190505b509050600060405180606001604052806040815260200161248a604091399050600181016020830160005b8681101561155f576003818a01810151603f601282901c8116860151600c83901c8216870151600684901c831688015192909316870151600891821b60ff94851601821b92841692909201901b91160160e01b8352600490920191016114fe565b506003860660018114611579576002811461158a57611596565b613d3d60f01b600119830152611596565b603d60f81b6000198301525b505050918152949350505050565b6115e7816040516024016115b89190611cc6565b60408051601f198184030181529190526020810180516001600160e01b031663104c13eb60e21b1790526118a9565b50565b61087c828260405160240161160092919061237b565b60408051601f198184030181529190526020810180516001600160e01b0316634b5c427760e01b1790526118a9565b61087c8282604051806020016040528060008152506118ca565b61165282610f2c565b6116b55760405162461bcd60e51b815260206004820152602e60248201527f45524337323155524953746f726167653a2055524920736574206f66206e6f6e60448201526d32bc34b9ba32b73a103a37b5b2b760911b60648201526084016105c5565b600082815260066020908152604090912082516106fb92840190611bb2565b60606116df82610f2c565b6117435760405162461bcd60e51b815260206004820152602f60248201527f4552433732314d657461646174613a2055524920717565727920666f72206e6f60448201526e3732bc34b9ba32b73a103a37b5b2b760891b60648201526084016105c5565b600061175a60408051602081019091526000815290565b9050600081511161177a5760405180602001604052806000815250610ae7565b80611784846118fd565b60405160200161179592919061223b565b6040516020818303038152906040529392505050565b60006001600160a01b0384163b1561189e57604051630a85bd0160e11b81526001600160a01b0385169063150b7a02906117ef9033908990889088906004016123a9565b6020604051808303816000875af192505050801561182a575060408051601f3d908101601f19168201909252611827918101906123e6565b60015b611884573d808015611858576040519150601f19603f3d011682016040523d82523d6000602084013e61185d565b606091505b50805161187c5760405162461bcd60e51b81526004016105c5906122e0565b805181602001fd5b6001600160e01b031916630a85bd0160e11b149050610e5c565b506001949350505050565b80516a636f6e736f6c652e6c6f67602083016000808483855afa5050505050565b6118d483836119fb565b6118e160008484846117ab565b6106fb5760405162461bcd60e51b81526004016105c5906122e0565b6060816119215750506040805180820190915260018152600360fc1b602082015290565b8160005b811561194b578061193581612296565b91506119449050600a83612348565b9150611925565b60008167ffffffffffffffff81111561196657611966611e3d565b6040519080825280601f01601f191660200182016040528015611990576020820181803683370190505b5090505b8415610e5c576119a56001836122b1565b91506119b2600a86612403565b6119bd9060306122c8565b60f81b8183815181106119d2576119d261226a565b60200101906001600160f81b031916908160001a9053506119f4600a86612348565b9450611994565b6001600160a01b038216611a515760405162461bcd60e51b815260206004820181905260248201527f4552433732313a206d696e7420746f20746865207a65726f206164647265737360448201526064016105c5565b611a5a81610f2c565b15611aa75760405162461bcd60e51b815260206004820152601c60248201527f4552433732313a20746f6b656e20616c7265616479206d696e7465640000000060448201526064016105c5565b6001600160a01b0382166000908152600360205260408120805460019290611ad09084906122c8565b909155505060008181526002602052604080822080546001600160a01b0319166001600160a01b03861690811790915590518392907fddf252ad1be2c89b69c2b068fc378daa952ba7f163c4a11628f55a4df523b3ef908290a45050565b828054611b3a90611fc4565b90600052602060002090601f016020900481019282611b5c5760008555611ba2565b82601f10611b755782800160ff19823516178555611ba2565b82800160010185558215611ba2579182015b82811115611ba2578235825591602001919060010190611b87565b50611bae929150611c26565b5090565b828054611bbe90611fc4565b90600052602060002090601f016020900481019282611be05760008555611ba2565b82601f10611bf957805160ff1916838001178555611ba2565b82800160010185558215611ba2579182015b82811115611ba2578251825591602001919060010190611c0b565b5b80821115611bae5760008155600101611c27565b6001600160e01b0319811681146115e757600080fd5b600060208284031215611c6357600080fd5b8135610ae781611c3b565b60005b83811015611c89578181015183820152602001611c71565b83811115610b2b5750506000910152565b60008151808452611cb2816020860160208601611c6e565b601f01601f19169290920160200192915050565b602081526000610ae76020830184611c9a565b600060208284031215611ceb57600080fd5b5035919050565b80356001600160a01b0381168114611d0957600080fd5b919050565b60008060408385031215611d2157600080fd5b611d2a83611cf2565b946020939093013593505050565b600080600060608486031215611d4d57600080fd5b611d5684611cf2565b9250611d6460208501611cf2565b9150604084013590509250925092565b600060208284031215611d8657600080fd5b610ae782611cf2565b60008060208385031215611da257600080fd5b823567ffffffffffffffff80821115611dba57600080fd5b818501915085601f830112611dce57600080fd5b813581811115611ddd57600080fd5b866020828501011115611def57600080fd5b60209290920196919550909350505050565b60008060408385031215611e1457600080fd5b611e1d83611cf2565b915060208301358015158114611e3257600080fd5b809150509250929050565b634e487b7160e01b600052604160045260246000fd5b60008060008060808587031215611e6957600080fd5b611e7285611cf2565b9350611e8060208601611cf2565b925060408501359150606085013567ffffffffffffffff80821115611ea457600080fd5b818701915087601f830112611eb857600080fd5b813581811115611eca57611eca611e3d565b604051601f8201601f19908116603f01168101908382118183101715611ef257611ef2611e3d565b816040528281528a6020848701011115611f0b57600080fd5b82602086016020830137600060208483010152809550505050505092959194509250565b6000602080830181845280855180835260408601915060408160051b870101925083870160005b82811015611f8457603f19888603018452611f72858351611c9a565b94509285019290850190600101611f56565b5092979650505050505050565b60008060408385031215611fa457600080fd5b611fad83611cf2565b9150611fbb60208401611cf2565b90509250929050565b600181811c90821680611fd857607f821691505b60208210811415610f2657634e487b7160e01b600052602260045260246000fd5b60208082526031908201527f4552433732313a207472616e736665722063616c6c6572206973206e6f74206f6040820152701ddb995c881b9bdc88185c1c1c9bdd9959607a1b606082015260800190565b60208152816020820152818360408301376000818301604090810191909152601f909201601f19160101919050565b8054600090600181811c908083168061209357607f831692505b60208084108214156120b557634e487b7160e01b600052602260045260246000fd5b8180156120c957600181146120da57612107565b60ff19861689528489019650612107565b60008881526020902060005b868110156120ff5781548b8201529085019083016120e6565b505084890196505b50505050505092915050565b600061211f8287612079565b8486823760009085019081526121358185612079565b979650505050505050565b6a3d9131b7b637b9111d101160a91b81528284600b8301376000838201600b8101600081527f222c20226465736372697074696f6e223a2022436f6d706f7361626c652050698152507f78656c204e465473222c2022696d616765223a2022646174613a696d6167652f602b8201526e1cdd99cade1b5b0ed8985cd94d8d0b608a1b604b82015283516121da81605a840160208801611c6e565b61227d60f01b605a9290910191820152605c0195945050505050565b7f646174613a6170706c69636174696f6e2f6a736f6e3b6261736536342c00000081526000825161222e81601d850160208701611c6e565b91909101601d0192915050565b6000835161224d818460208801611c6e565b835190830190612261818360208801611c6e565b01949350505050565b634e487b7160e01b600052603260045260246000fd5b634e487b7160e01b600052601160045260246000fd5b60006000198214156122aa576122aa612280565b5060010190565b6000828210156122c3576122c3612280565b500390565b600082198211156122db576122db612280565b500190565b60208082526032908201527f4552433732313a207472616e7366657220746f206e6f6e20455243373231526560408201527131b2b4bb32b91034b6b83632b6b2b73a32b960711b606082015260800190565b634e487b7160e01b600052601260045260246000fd5b60008261235757612357612332565b500490565b600081600019048311821515161561237657612376612280565b500290565b60408152600061238e6040830185611c9a565b82810360208401526123a08185611c9a565b95945050505050565b6001600160a01b03858116825284166020820152604081018390526080606082018190526000906123dc90830184611c9a565b9695505050505050565b6000602082840312156123f857600080fd5b8151610ae781611c3b565b60008261241257612412612332565b50069056fe0a2d2d2d2d2d2d2d2d2d2d2d2d2d2d2d2d2d2d2d2d2d2d2d2d2d2d2d2d2d2d2d2d2d2d2d2d2d2d2d2d2d2d2d2d2d2d2d2d2d2d2d2d2d2d2d2d2d2d2d2d2d2d2d2d2d2d2d2d2d2d2d2d2d2d2d2d2d2d2d2d2d2d2d2d2d2d2d2d2d2d2d2d2d2d2d2d2d2d2d2d2d2d2d2d2d2d2d2d2d2d2d2d0a4142434445464748494a4b4c4d4e4f505152535455565758595a6162636465666768696a6b6c6d6e6f707172737475767778797a303132333435363738392b2f47657474696e6720616c6c20706978656c204e46542066726f6d20636f6e7472616374a264697066735822122046cbc7af28a03d4c529aef111ea69c4c81d8f6dfc8c8fb254ba30cd89f555fba64736f6c634300080a00333c73766720786d6c6e733d22687474703a2f2f7777772e77332e6f72672f323030302f737667222077696474683d2232303022206865696768743d22323030223e3c726563742077696474683d2232303022206865696768743d2232303022207374796c653d2266696c6c3a23",
  "linkReferences": {},
  "deployedLinkReferences": {}
}